:020000040000FA
:06000000C6EF4DF01200F6
:020006001200E6
:0600080093EF31F012003D
:02000E001200DE
:04001000280C0106B1
:020014000400E6
:020016000000E8
:0600180036EF31F012008A
:02001E001100CF
:10002000199C00002A04000001000000189C000038
:100030002904000001000000179C000028040000B3
:1000400001000000139C00001C04000004000000DC
:10005000059C0000B90300000E000000049C000095
:100060002704000001000000009C000018040000AC
:1000700004000000FE9B00002204000002000000BB
:10008000FD9B00002604000001000000FC9B000016
:100090002504000001000000FB9B00002404000078
:1000A00001000000136E0000FF03000001000000CB
:1000B000F59B00000604000006000000160000008A
:1000C0002004000002000000F19B00001404000066
:1000D0000400000014000000FD0300000200000006
:0C00E000100000001004000004000000EC
:0400EC00140E0201EB
:1000F000D06FD16B0201020ECE6F0D0ECF6F07ECE9
:1001000015F0F00E0D010215400802E0000EBBD004
:100110001F0E0815146EFF0E0915156E14501510DC
:1001200002E0000EB0D00F0E0215040DF3CF90F0D8
:1001300000019051146E156A140E145E000E155ACB
:1001400014C01CFD0D011C51280802E2000E9BD0BA
:100150001C5100080BE21C510201D06FD16B02014F
:100160001D0ECE6F0D0ECF6F07EC15F00CCD16FDEA
:100170000DCD17FD0D010C6B0D6B140E0301F16F0E
:10018000F26B0301020EEF6F0D0EF06F53EC46F0B1
:10019000F3CF18FDF4CF19FD0D01181F191F1C51C5
:1001A000000813E21C510301F16FF26B03011D0EF5
:1001B000EF6F0D0EF06F53EC46F0F3CF1AFDF4CF56
:1001C0001BFD0D011A1F1B1F02D01A6B1B6B040EA7
:1001D0000301F16FF26B0301180EEF6F0D0EF06F5C
:1001E00053EC46F0F3CF00FDF4CF01FD0D010051BB
:1001F000161902E10151171902E0000E44D0000166
:10020000020ECF6F0D0ED06FBFD80001BE51BF11CF
:100210000CE0BEC0E9FFBFC0EAFF12CDEEFF13CD78
:10022000EEFF14CDEEFF15CDEEFFC0C0E9FFC1C05B
:10023000EAFF0ECDEEFF0FCDEEFF10CDEEFF11CD9C
:10024000EEFFC2C0E9FFC3C0EAFF0BCDEFFF905144
:10025000166E176A0D011650045D146E175005597D
:10026000156EC4C0E9FFC5C0EAFF14C0EEFF15C09B
:10027000EDFFC6C0E9FFC7C0EAFF04CDEEFF05CD24
:10028000EDFF010E00D012000001140E906F0D0161
:10029000450E006F016B140E0001CB250D01026F9E
:1002A000000E0001CC210D01036F04011C2B000E78
:1002B0001D231CC404FD1DC405FD0D01066B076B49
:1002C000640E086FCAC009FD0A6B0B6B01C20CFDFE
:1002D00002C20DFD03C20EFD04C20FFDC8C0E9FF3E
:1002E000C9C0EAFFEECF10FDEECF11FDEECF12FD3B
:1002F000EFCF13FD0001000ECF6F0D0ED06F44D86D
:10030000140E0301F16FF26B0301000EEF6F0D0E7F
:10031000F06F53EC46F0F3CF0AFDF4CF0BFD140E53
:100320000001CB250201BC6F000E0001CC210201AF
:10033000BD6F0201BB6BC8C0E9FFC9C0EAFF040E74
:10034000E926000EEA22E9CFB9F2EACFBAF286EC4A
:1003500011F0140E0201D56FD66B0201000ED36F9F
:100360000D0ED46F6EEC15F0F36AF46A00D0120033
:1003700000019051CD250201BE6F000E0001CE217B
:100380000201BF6F09EF12F0CFC0E9FFD0C0EAFF52
:10039000020EE926000EEA22EECFF5F3EDCFF6F3DA
:1003A00035EC47F0F3CF14F0F4CF15F0CFC0E9FFF0
:1003B000D0C0EAFF020E14C0EBFF030E15C0EBFF26
:1003C000CFC0E9FFD0C0EAFF040EE926000EEA2202
:1003D000EECFF5F3EDCFF6F335EC47F0F3CF14F0B5
:1003E000F4CF15F0CFC0E9FFD0C0EAFF040E14C06F
:1003F000EBFF050E15C0EBFFCFC0E9FFD0C0EAFF51
:100400000A0EE926000EEA22EECFF5F3EDCFF6F361
:1004100035EC47F0F3CF14F0F4CF15F0CFC0E9FF7F
:10042000D0C0EAFF0A0E14C0EBFF0B0E15C0EBFFA5
:1004300012000D01A16B040EA15D1DE2D3C0E9FF06
:10044000D4C0EAFFE9CF14F0EACF15F0A1510F01B3
:100450001424E96E000E1520EA6EEF50E66E0D01D1
:10046000A151EA6AA10FE96E000EEA22E552E750B7
:10047000EF6EA12BE0D7A16B060EA15D21E2D3C0E8
:10048000E9FFD4C0EAFF040EE926000EEA22E9CF14
:1004900014F0EACF15F0A1510F011424E96E000EFB
:1004A0001520EA6EEF50E66E0D01A151EA6AA50F24
:1004B000E96E000EEA22E552E750EF6EA12BDCD781
:1004C000D3C0E9FFD4C0EAFF040EE926000EEA22F9
:1004D000050EE926000EEA22EF50E66EE66AD3C06A
:1004E000E9FFD4C0EAFF040EE926000EEA22040E5A
:1004F000E926000EEA22EF50E66EE66AD3C0E9FF75
:10050000D4C0EAFF040EE926000EEA22030EE92613
:10051000000EEA22EF50E66EE66AD3C0E9FFD4C0CF
:10052000EAFF040EE926000EEA22020EE926000E7A
:10053000EA22EF50E66EE66AD3C0E9FFD4C0EAFFD4
:10054000040EE926000EEA22010EE926000EEA2238
:10055000EF50E66EE66AD3C0E9FFD4C0EAFF040EAE
:10056000E926000EEA22EF50E66EE66AE60EE66E37
:100570006C0EE66E000EE66E800EE66E000EE66E07
:100580006DEC4BF0146E110EE15E14500301800E01
:10059000EA6F000EEB6F3AEC4BF0D3C0E9FFD4C02A
:1005A000EAFF030EE926000EEA22EF50E66EE66A45
:1005B000D3C0E9FFD4C0EAFF020EE926000EEA220A
:1005C000EF50E66EE66AD3C0E9FFD4C0EAFF010E41
:1005D000E926000EEA22EF50E66EE66AD3C0E9FF94
:1005E000D4C0EAFFEF50E66EE66ACD0EE66E6C0E02
:1005F000E66E000EE66E800EE66E000EE66E6DECA8
:100600004BF0146E0D0EE15E14500301800EEA6F84
:10061000000EEB6F3AEC4BF013EC0DF0F3CF95F0CE
:10062000F4CF96F0FF0E00019515146E156A14C0F4
:10063000E6FF15C0E6FF96C016F0176A16C0E6FF83
:1006400017C0E6FFBA0EE66E6C0EE66E000EE66EA2
:10065000800EE66E000EE66E6DEC4BF0186E090E25
:10066000E15E18500301800EEA6F000EEB6F3AEC6A
:100670004BF013EC0DF0F3CF97F0F4CF98F013ECB0
:100680000DF0F3CF99F0F4CF9AF013EC0DF0F3CF17
:100690009BF0F4CF9CF013EC0DF0F3CF9DF0F4CF72
:1006A0009EF013EC0DF0F3CF9FF0F4CFA0F00CEC24
:1006B0000DF00CEC0DF00D01A26F020EA25D18E121
:1006C0000301AD0EEC6F6C0EED6F000EEE6F50EC93
:1006D0004BF000019B2B000E9C239B519C1103E1CE
:1006E000992B000E9A230001100EE56F13DB60D0EA
:1006F000100EA25D0AE10301A00EEC6F6C0EED6F0F
:10070000000EEE6F50EC4BF053D0180EA25D25E1B9
:1007100003018F0EEC6F6C0EED6F000EEE6F50EC60
:100720004BF013EC0DF013EC0DF013EC0DF0D1C009
:1007300014F0D2C015F0280E145E000E155A145095
:1007400000019B2715509C23D8A003D0992B000EA5
:100750009A230001E56BDEDA2BD0A2A120D00301A1
:10076000820EEC6F6C0EED6F000EEE6F50EC4BF0E6
:10077000D1C014F0D2C015F0280E145E000E155A28
:10078000145000019B2715509C23D8A003D0992B0F
:10079000000E9A230001010EE56FBCDA09D00301B7
:1007A000750EEC6F6C0EED6F000EEE6F50EC4BF0B3
:1007B00012000001D50500E1B0EC0FF0000901E1E5
:1007C000FBD7ACEC15F0A5C0A9F24EEC0DF0A6C01D
:1007D000A9F24EEC0DF0A7C0A9F24EEC0DF0A8C0A6
:1007E000A9F24EEC0DF0A9C0A9F24EEC0DF0AAC092
:1007F000A9F24EEC0DF00201AA0EA96F4EEC0DF01D
:100800000201AA0EA96F4EEC0DF00201030EA96FB2
:100810004EEC0DF00201A96B4EEC0DF00201A96B3C
:100820004EEC0DF00201A96B4EEF0DF00201A76B2B
:10083000080EA86F41EC0DF0B0EC0FF0000901E1DB
:10084000FBD70201A76B450EA86F41EC0DF0D6C097
:10085000A7F2D7C0A8F241EC0DF004011E2B000E48
:100860001F231EC4A7F21FC4A8F241EC0DF0020121
:10087000A76BA86B41EC0DF00001D8510201A76FE6
:10088000A86B000EA727200EA82341EC0DF0020153
:10089000A76BA86B41EC0DF00D01406B416B040E92
:1008A000405D000E41590FE2010E4025E96E020E37
:1008B0004121EA6EEFCFA9F24EEC0DF00D01402B75
:1008C000000E4123ECD7406B416B040E405D000EDF
:1008D00041590FE2A10E4025E96E000E4121EA6E5A
:1008E000EFCFA9F24EEC0DF00D01402B000E41238D
:1008F000ECD712000D012D6B2E6B0201880EC26F1A
:100900000B0EC36F30EC12F0020E0001D95D00E156
:100910000D01336B0A0E335D16E213EC0DF0F3CFCD
:1009200031FDF4CF32FD2DCD2FFD2ECD30FD0D014B
:1009300031512D2732512E23D8A003D02D2B000E5C
:100940002E23332BE7D72D1F2E1F0201920EC06FCF
:100950000B0EC16F1DEC12F0020E0001D95D00E11B
:100960002DCDA7F22ECDA8F241EF0DF00001DC0550
:1009700004E1B1C02EFDB2C02FFD020EDC5D04E12A
:10098000AFC02EFDB0C02FFD0201940EC26F0B0E42
:10099000C36F30EC12F00D012D6B0001DA510D0127
:1009A0002D5D000E0001DB5515E22ECD30FD2FCD63
:1009B00031FD2AEC0DF0F3500D012E27F4502F23BA
:1009C00030512E5D31512F5903E22E2B000E2F2373
:1009D0002D2BE3D70D012E1F2F1F0201AC0EC06F70
:1009E0000B0EC16F1DEC12F02ECDA7F22FCDA8F289
:1009F00041EF0DF05E0E0001DD5D04E1BA5102E150
:100A0000220EDD6FB551010B2EE0B7510D012D6F98
:100A10002E6B2DCD15F0146A0001DD510D0114244B
:100A20002D6F000E15202E6F2DCDA7F22ECDA8F222
:100A300041EC0DF0AFC02FFDB0C030FD0D012D51C8
:100A40000001AF270D012E510001B0230D012F51E0
:100A50000001AF5D0D0130510001B05903E2AF2B31
:100A6000000EB02302D0DDC0B7F0B52B000EB623C8
:100A7000AA0EB51902E1050EB61916E1B351B4116B
:100A800013E1B5C0B3F0B6C0B4F0AFC0B1F0B0C0C0
:100A9000B2F0B56BB66BAF6BB06B0201B00EC06F4E
:100AA0000B0EC16F1DEC12F012000001DF0504E116
:100AB000B3C038FDB4C039FD020EDF5D04E1B5C03E
:100AC00038FDB6C039FDDFC0D5F073DE100E000171
:100AD000DE5D09E10001060ED86F2C0E0001D66F15
:100AE000D76BA4DE0ED00001060ED86F280E0D01C4
:100AF00038250001D66F000E0D0139210001D76F96
:100B000095DE97C0A7F298C0A8F241EC0DF095C011
:100B1000A7F296C0A8F241EC0DF09DC0A7F29EC0CE
:100B2000A8F241EC0DF09FC0A7F2A0C0A8F241ECE2
:100B30000DF099C0A7F29AC0A8F241EC0DF09BC04D
:100B4000A7F29CC0A8F241EC0DF0100E0001DE5D92
:100B500008E10201120EA76F600EA86F41EC0DF0C4
:100B60001BD0DE0508E10201140EA76F500EA86F1E
:100B700041EC0DF011D0BB0508E10201190EA76F81
:100B8000500EA86F41EC0DF007D00201180EA76FB0
:100B9000500EA86F41EC0DF00201A76B200EA86F5C
:100BA00041EC0DF0100E0001DE5D07E11E0E0201AA
:100BB000A76FA86B41EC0DF00CD01A0E0D01382573
:100BC0000201A76F000E0D0139210201A86F41EC4F
:100BD0000DF00201A76BA86B41EC0DF0100E0001A7
:100BE000DE5D29E10201040EA76F020EA86F41EC41
:100BF0000DF00201B40EA76F050EA86F41EC0DF0C9
:100C00000201A76BA86B41EC0DF0DFC0D9F072DEDA
:100C10000001B16BB26BDFC0DCF0100E0001DA6FC7
:100C2000DB6BA4DEDFC0AEF23B0E0201AC6FAD6B3E
:100C300069EC0DF018D0DFC0D9F05CDEDFC0DCF06D
:100C40000E0E0001DA6FDB6B91DEDFC0AEF2360E06
:100C50000D0138250201AC6F000E0D013921020192
:100C6000AD6F69EC0DF012000001B551010B29E0E8
:100C7000B7510D012D6F2E6B2DCD2EFD2D6B2DCD72
:100C8000A7F22ECDA8F241EC0DF00001B52B000E1D
:100C9000B623AFC02FFDB0C030FD0D012D510001B6
:100CA000AF270D012E510001B0230D012F5100017E
:100CB000AF5D0D0130510001B05903E2AF2B000EC2
:100CC000B02312001200E0C0E9FFE1C0EAFFEFCF5D
:100CD000DDF090DE0001E0C0E9FFE1C0EAFFE02BBB
:100CE000000EE123EF50EFE11200E2C0F6FFE3C097
:100CF000F7FFE4C0F8FF0800F5CF00FDF55009E06C
:100D000000CDDDF077DE0001E22B000EE323E423CB
:100D1000ECD712000001B36BB46BB16BB26BB56B67
:100D2000B66BAF6BB06B0D01256B0001E55101E0B7
:100D3000E7D1932B000E942313EC0DF0F3CF14F0B6
:100D4000F4CF15F0450E141802E1470E151801E016
:100D5000D6D103016F0EEC6F6C0EED6F000EEE6FCF
:100D600050EC4BF013EC0DF013EC0DF0F3CF1CFD39
:100D7000F4CF1DFD13EC0DF0F3CF1EFDF4CF1FFDDE
:100D80001CCD15F0146A1FCD16F0176A14501624E6
:100D90000D011C6F155017201D6FFF0E1E15146ED0
:100DA000156A3F0E141801E1155001E18BDF0201B5
:100DB000B00EC06F0B0EC16F1DEC12F0450E0D0191
:100DC0001C1902E1450E1D195DE10301670EEC6F70
:100DD0006C0EED6F000EEE6F50EC4BF0899200013F
:100DE000BA6B0001550EE26F6C0EE36F000EE46FFC
:100DF0007CDF0001480EE26F6C0EE36F000EE46FC3
:100E000074DF00012D0EE26F6C0EE36F000EE46FD5
:100E10006CDF0001070EE26F6C0EE36F000EE46FF3
:100E200064DF0001D80EE26F6B0EE36F000EE46F1B
:100E30005CDF00017D0EE26F6B0EE36F000EE46F6E
:100E400054DF0001160EE26F6B0EE36F000EE46FCD
:100E50004CDF0001E00EE26F6A0EE36F000EE46FFC
:100E600044DF0001D70EE26F6A0EE36F000EE46FFD
:100E70003CDF0001B40EE26F6A0EE36F000EE46F18
:100E800034DF3DD1460E1C1902E1450E1D195DE10E
:100E90000301AC0EEC6F6A0EED6F000EEE6F50ECBE
:100EA0004BF089820001BA6B0001550EE26F6C0EA7
:100EB000E36F000EE46F19DF0001480EE26F6C0E65
:100EC000E36F000EE46F11DF00012D0EE26F6C0E78
:100ED000E36F000EE46F09DF0001070EE26F6C0E96
:100EE000E36F000EE46F01DF0001D80EE26F6B0EBE
:100EF000E36F000EE46FF9DE00017D0EE26F6B0E12
:100F0000E36F000EE46FF1DE0001440EE26F6A0E43
:100F1000E36F000EE46FE9DE00010E0EE26F6A0E71
:100F2000E36F000EE46FE1DE0001D70EE26F6A0EA0
:100F3000E36F000EE46FD9DE0001EA0EE26F690E86
:100F4000E36F000EE46FD1DEDAD0420E1C1902E12D
:100F5000490E1D192FE10001BA6B0001550EE26F19
:100F60006C0EE36F000EE46FC0DE0001CD0EE26F89
:100F7000690EE36F000EE46FB8DE0001010EBA6F78
:100F80000A0E0D01276F286B0D0127CD14F028CD17
:100F900015F02707000E285B1450151006E00A0E06
:100FA000E66EA6EC4DF0E552EFD7ABEC0CF000018D
:100FB000BA6BA5D0430E1C1902E1490E1D192FE191
:100FC0000001BA6B0001550EE26F6C0EE36F000E6C
:100FD000E46F8BDE0001CD0EE26F690EE36F000E51
:100FE000E46F83DE0001010EBA6F0A0E0D01296F56
:100FF0002A6B0D0129CD14F02ACD15F02907000E1A
:101000002A5B1450151006E00A0EE66EA6EC4DF0B1
:10101000E552EFD7DBEC0CF00001BA6B70D00001A9
:10102000BA6B0301BC0EEC6F690EED6F000EEE6F34
:1010300050EC4BF00A0E0D012B6F2C6B0D012BCDDC
:1010400014F02CCD15F02B07000E2C5B145015104E
:1010500006E00A0EE66EA6EC4DF0E552EFD7000171
:10106000550EE26F6C0EE36F000EE46F3EDE000182
:10107000A30EE26F690EE36F000EE46F36DE00012F
:101080007D0EE26F690EE36F000EE46F2EDE00014D
:10109000D80EE26F6B0EE36F000EE46F26DE0001E8
:1010A000220EE26F690EE36F000EE46F1EDE000198
:1010B000160EE26F6B0EE36F000EE46F16DE00019A
:1010C000F50EE26F680EE36F000EE46F0EDE0001B6
:1010D000E90EE26F680EE36F000EE46F06DE0001BA
:1010E000A60EE26F680EE36F000EE46FFEDD0001F6
:1010F000720EE26F680EE36F000EE46FF6DD11D042
:10110000E5050FE10201B00EC06F0B0EC16F1DECC3
:1011100012F000016B0EE26F680EE36F000EE46FD9
:10112000E4DDA2DD0001B351B41113E1B5C0B3F0A9
:10113000B6C0B4F0AFC0B1F0B0C0B2F0B56BB66B32
:10114000AF6BB06B010EBB6F0001DF6FE5C0DEF06F
:10115000ACDC0D01246B120001EC4BF0000901E046
:10116000FBD7E6C0E6F31BEF4BF00001AA0EE66FDB
:10117000F3DF00010E0EE66FEFDFE7C0E6F0ECDF15
:101180000001E66BE9DF0001E8510001E66FE4DFF2
:10119000E9C014F0156A14C0E6F0ACEF08F00001E5
:1011A000AA0EE66FD9DF00010D0EE66FD5DF000154
:1011B000E66BD2DF0001E66BCFDF0001E66BCCDF30
:1011C0000001E66BC9DF0A0E0D010D6F0E6B0D01FC
:1011D0000DCD14F00ECD15F00D07000E0E5B145062
:1011E000151006E00A0EE66EA6EC4DF0E552EFD7BC
:1011F0009EAAD5D7ABA202D0AB98AB88066B020EE5
:10120000065D0FE218EC4BF0E66E0D010651EA6A3E
:10121000000FE96E0D0EEA22E552E750EF6E062B45
:10122000EED70A0E0F6F106B0D010FCD14F010CD1D
:1012300015F00F07000E105B1450151006E00A0E93
:10124000E66EA6EC4DF0E552EFD70001E86BE96BD6
:1012500000010D0EE76FB5EF08F00001AA0EE66F72
:101260007BDF0001010EE66F77DF0001E66B74DFC4
:101270000001070EE66F70DF0001050EE66F6CDF00
:101280000001050EE66F68DF0D01066B060E065DB8
:1012900015E29EAAFED7ABA202D0AB98AB8818ECA1
:1012A0004BF0E66E0D010651EA6A000FE96E0D0E75
:1012B000EA22E552E750EF6E062BE8D70A0E076FD9
:1012C000086B0D0107CD14F008CD15F00707000ECF
:1012D000085B1450151006E00A0EE66EA6EC4DF001
:1012E000E552EFD70001AA0EE66F36DF0001130EBC
:1012F000E66F32DF0001E66B2FDF0001E66B2CDFCB
:101300000001E66B29DF0001E66B26DF0D01066BAD
:10131000060E065D15E29EAAFED7ABA202D0AB98E0
:10132000AB8818EC4BF0E66E0D010651EA6A000F2F
:10133000E96E0D0EEA22E552E750EF6E062BE8D774
:101340000A0E096F0A6B0D0109CD14F00ACD15F0D4
:101350000907000E0A5B1450151006E00A0EE66E2F
:10136000A6EC4DF0E552EFD70001AA0EE66FF4DED1
:101370000001060EE66FF0DE0001080EE66FECDEFF
:101380000001E66BE9DE0001020EE66FE5DE00011A
:10139000E66BE2DE0D01066B060E065D15E29EAA07
:1013A000FED7ABA202D0AB98AB8818EC4BF0E66E40
:1013B0000D010651EA6A000FE96E0D0EEA22E552B0
:1013C000E750EF6E062BE8D712000001AA0EE66F79
:1013D000C3DE0001010EE66FBFDE0001E66BBCDE7E
:1013E0000001070EE66FB8DE0001070EE66FB4DEFF
:1013F0000001070EE66FB0DE0D01066B060E065DFE
:1014000015E29EAAFED7ABA202D0AB98AB8818EC2F
:101410004BF0E66E0D010651EA6A000FE96E0D0E03
:10142000EA22E552E750EF6E062BE8D70A0E096F65
:101430000A6B0D0109CD14F00ACD15F00907000E55
:101440000A5B1450151006E00A0EE66EA6EC4DF08D
:10145000E552EFD70001AA0EE66F7EDE0001130E03
:10146000E66F7ADE0001E66B77DE0001E66B74DE84
:101470000001E66B71DE0001E66B6EDE0D01066BAE
:10148000060E065D15E29EAAFED7ABA202D0AB986F
:10149000AB8818EC4BF0E66E0D010651EA6A000FBE
:1014A000E96E0D0EEA22E552E750EF6E062BE8D703
:1014B0000A0E0B6F0C6B0D010BCD14F00CCD15F05B
:1014C0000B07000E0C5B1450151006E00A0EE66EBA
:1014D000A6EC4DF0E552EFD70001AA0EE66F3CDE18
:1014E0000001060EE66F38DE0001080EE66F34DEFE
:1014F0000001E66B31DE0001020EE66F2DDE000119
:10150000E66B2ADE0D01066B060E065D15E29EAA4D
:10151000FED7ABA202D0AB98AB8818EC4BF0E66ECE
:101520000D010651EA6A000FE96E0D0EEA22E5523E
:10153000E750EF6E062BE8D712000001AA0EE66F07
:101540000BDE0001050EE66F07DE0001E66B04DE30
:101550000001E66B01DE0001E66BFEDD0001E66BDB
:10156000FBDD0D01066B060E065D15E29EAAFED799
:10157000ABA202D0AB98AB8818EC4BF0E66E0D0135
:101580000651EA6A000FE96E0D0EEA22E552E750B5
:10159000EF6E062BE8D712000001AA0EE66FDCDD25
:1015A0000001040EE66FD8DD0001010EE66FD4DD08
:1015B0000001E66BD1DD0001E66BCEDD0001E66BDC
:1015C000CBDD0D01096B060E095D15E29EAAFED763
:1015D000ABA202D0AB98AB8818EC4BF0E66E0D01D5
:1015E0000951EA6A030FE96E0D0EEA22E552E7504F
:1015F000EF6E092BE8D7096B060E095D15E29EAA6E
:10160000FED7ABA202D0AB98AB8818EC4BF0E66EDD
:101610000D010951EA6A030FE96E0D0EEA22E55247
:10162000E750EF6E092BE8D707510E6F0F6B0ECD09
:101630000FFD0E6B06510E250E6F000E0F210F6F62
:101640000001AA0EE66F88DD00010E0EE66F84DD54
:101650000001E66B81DD0001E66B7EDD0001E66BDB
:101660007BDD0001E66B78DD0D010C6B0D6B126B01
:10167000136B146B156B166B176B1A6B1B6B0D01D1
:101680000E510C5D0F510D5901E3D9D0096B040EB9
:10169000095D15E29EAAFED7ABA202D0AB98AB883B
:1016A00018EC4BF0E66E0D010951EA6A030FE96E82
:1016B0000D0EEA22E552E750EF6E092BE8D70651EE
:1016C000106F116B10CD11FD106B05511025106FAF
:1016D000000E1121116F146B156B1051145D115117
:1016E000155915E29EAAFED7ABA202D0AB98AB88E3
:1016F00018EC4BF00D01026F02CDDDF0FAEC04F0B6
:101700000D01162B000E1723142B1523E6D71A2BC9
:10171000000E1B2334EC06F0B5C00AFDB6C00BFD6D
:10172000B5C0B3F0B6C0B4F0AFC0B1F0B0C0B2F065
:101730000001B56BB66BAF6BB06B0D01096B020EA0
:10174000095D15E29EAAFED7ABA202D0AB98AB888A
:1017500018EC4BF0E66E0D010951EA6A030FE96ED1
:101760000D0EEA22E552E750EF6E092BE8D70C5137
:1017700010250C6F0D5111210D6F122B000E13232C
:101780001251006F000E1215146EFF0E1315156E18
:1017900015C014F0156A14C001FD0E510C5D0F51F7
:1017A0000D5920E30001AA0EE66FD6DC00010E0EF3
:1017B000E66FD2DC0001E66BCFDC0001E66BCCDC2F
:1017C0000001F00EE66FC8DC0001F00EE66FC4DC2D
:1017D0000001010EBB6F0001DF6F0001DE6B55ECF5
:1017E00005F02CD00001BB6B0001010EDF6F000182
:1017F000DE6B55EC05F00D010A5100019F270D012C
:101800000B510001A0230201B00EC06F0B0EC16F7F
:101810001DEC12F00001AA0EE66F9EDC00010E0E18
:10182000E66F9ADC0001E66B97DC0001E66B94DC66
:1018300000CDE6F091DC01CDE6F08EDC20D7000192
:10184000AA0EE66F89DC0001090EE66F85DC000157
:10185000E66B82DC0001E66B7FDC0001E66B7CDC82
:101860000001E66B79DC0D01096B060E095D15E2DE
:101870009EAAFED7ABA202D0AB98AB8818EC4BF077
:10188000E66E0D010951EA6A030FE96E0D0EEA22B8
:10189000E552E750EF6E092BE8D712000001AA0EBF
:1018A000E66F5ADC0001080EE66F56DC0001E66BBD
:1018B00053DC0001E66B50DC0001E66B4DDC0001FF
:1018C000E6694ADC0D01066B060E065D15E29EAA6E
:1018D000FED7ABA202D0AB98AB8818EC4BF0E66E0B
:1018E0000D010651EA6A000FE96E0D0EEA22E5527B
:1018F000E750EF6E062BE8D70F010C0E7D6F07EC5B
:1019000046F00D010551E66EE66A0451E66EE66AA0
:101910000351E66EE66A0251E66EE66A0151E66E32
:10192000E66A0051E66EE66A580EE66E680EE66EEE
:10193000000EE66E800EE66E000EE66E6DEC4BF06D
:10194000146E110EE15E14500F01800E7E6F000EBA
:101950007F6F42EF46F023DC0D01F40E3C6F010E69
:101960003D6F0D013CCD14F03DCD15F03C07000E50
:101970003D5B1450151006E00A0EE66EA6EC4DF025
:10198000E552EFD76ADCD9DD640E0D013E6F3F6B87
:101990000D013ECD14F03FCD15F03E07000E3F5B2C
:1019A0001450151006E00A0EE66EA6EC4DF0E55256
:1019B000EFD7CCEF0AF0CFEC08F00D01F40E3C6F3E
:1019C000010E3D6F0D013CCD14F03DCD15F03C07EF
:1019D000000E3D5B1450151006E00A0EE66EA6ECF4
:1019E0004DF0E552EFD7F1DCA8DD640E0D013E6F3E
:1019F0003F6B0D013ECD14F03FCD15F03E07000EBC
:101A00003F5B1450151006E00A0EE66EA6EC4DF092
:081A1000E552EFD7CCEF0AF01C
:081A1800E7EC14F00D01006F72
:101A2000005100D01200E7EC14F00D01346F356B5B
:101A300034CD35FD346BE7EC14F0146E156A145098
:101A40000D0134131550351334CDF3FF35CDF4FFAC
:101A500000D01200E7EC14F00D01326F336B32CD81
:101A600033FD326BE7EC14F0146E156A14500D015F
:101A700032131550331332CDF3FF33CDF4FF00D0C2
:101A80001200A8C214F0156A14C0D2F24EEC15F080
:101A90000201A7510201D26F4EEF15F0A9C2D2F296
:101AA0004EEF15F00201AA510D01006F016B00CD40
:101AB00001FD006B0201AB51146E156A14500D014B
:101AC00000131550011300CDF3FF01CDF4FF00D03A
:101AD00012000201AE0503E10D01010E2D6F040E8F
:101AE0000201AC25A36F000EAD21A46FCAEF11F067
:101AF0008FEC48F00201AF51E96EEA6AD890E936FE
:101B0000EA369D0EE926020EEA22EECF14F0EFCF60
:101B100015F0166A176A560E145C170E1558000E4B
:101B20001658000E175801E337D1AF51E96EEA6A33
:101B3000D890E936EA369D0EE926020EEA22EECF6B
:101B400014F0EFCF15F0166A176A760E145C0B0EC0
:101B50001558000E1658000E175841E20D01666B1D
:101B60000201AF51E96EEA6AD890E936EA369D0E75
:101B7000E926020EEA22EECF14F0EFCF15F0166A36
:101B8000176AF60E145EFF0E155A165A175A14C02D
:101B900067FD15C068FDAF51E96EEA6AD890E93675
:101BA000EA369D0EE926020EEA22EECF14F0EFCFC0
:101BB00015F0166A176A140E145C000E1558000E04
:101BC0001658000E17580AE20301270EFB6F010E8C
:101BD000FC6F0301040EFA6F46EC4DF09DD00F012F
:101BE00001513EE10D012E0E6F6F310E706F010E2F
:101BF000716F726BAFEC4AF006C06BFD07C06CFDF5
:101C000008C06DFD09C06EFD0F01F20E066F050ED6
:101C1000076F11EC2BF0000923E1AFEC4AF00D0146
:101C20006B51065C146E6C510758156E6D51085857
:101C3000166E6E510958176E6F51145C705115581D
:101C400071511658725117580AE303013C0EFB6F8D
:101C5000010EFC6F0301040EFA6F46EC4DF0D4D771
:101C60000D01010E666F0201AF51E96EEA6AD8906C
:101C7000E936EA369D0EE926020EEA22EECF14F08E
:101C8000EFCF15F0166A176A760E145E0B0E155A12
:101C9000000E165A175A14C067FD15C068FDAF51E3
:101CA000E96EEA6AD890E936EA369D0EE926020E18
:101CB000EA22EECF14F0EFCF15F0166A176A7A0E0B
:101CC000145C0B0E1558000E1658000E17581AE328
:101CD000AF51E96EEA6AD890E936EA369D0EE926F8
:101CE000020EEA22EECF18F0EFCF19F01A6A1B6A43
:101CF000D880640E1854110E1954000E1A54000E98
:101D00001B540AE20301490EFB6F010EFC6F030135
:101D1000040EFA6F46EC4DF00D016651EA6A000FB1
:101D2000E96E0F0EEA22EF500AE10301520EFB6F3B
:101D3000010EFC6F0301040EFA6F46EC4DF00D012D
:101D40006651EA6A020FE96E0F0EEA22EF500208AE
:101D500022E066CD0EFFC3EC2BF0F3CF69FDF4CF8C
:101D60006AFD0D01000ED8806955000E6A550AE320
:101D700003015E0EFB6F010EFC6F0301040EFA6F90
:101D800046EC4DF00D016651EA6A020FE96E0F0E46
:101D9000EA22020EEF6E61D00F01020503E10D0190
:101DA000666B3FD0030504E10D01010E666F39D06B
:101DB000010E0201D880AF55EA6A9B0FE96E020E50
:101DC000EA22EF5004E10D01010E666F02D00D0111
:101DD000666B6651EA6A020FE96E0F0EEA22EF5057
:101DE000020809E06651EA6A020FE96E0F0EEA2264
:101DF000EF50030804E166CD0DFFB3EC2BF066CD88
:101E00000FFFDDEC2BF0F3CF14F0F4CF15F01450EE
:101E1000151007E10D01665102E0000E01D0010E20
:101E2000666F0201AF51E96EEA6AD890E936EA3688
:101E30009D0EE926020EEA22EECF14F0EFCF15F048
:101E4000166A176A560E145E170E155A000E165AA9
:101E5000175A14C067FD15C068FD67CD28FF68CD0F
:101E600029FF0D0166510F01266F276BA9EC2CF09D
:101E7000000907E10D01665103E10201010EA66FA1
:101E800005D00D01665102E10201A66B0201AF51BE
:101E9000EA6A9B0FE96E020EEA2266CDEFFF010EA1
:101EA000D880AF55EA6A9B0FE96E020EEA22EFCFA7
:101EB00014F0AF51EA6A9B0FE96E020EEA22EF506E
:101EC000145C09E1010ED880AF55EA6A9B0FE96EF8
:101ED000020EEA22EF6812000FEC2EF004012151ED
:101EE00010E0020E0F01035D0AE153EC2BF002013A
:101EF0009B5101E19B699C0501E19C6902D00401B1
:101F0000216B120059EF4CF00F01010E106F0BEC1A
:101F10002CF00F010F6BDDEC2BF00F01106B0BECB5
:101F20002CF00F01006B02019B6B560E9D6F170E7C
:101F30009E6F0F01016B0F01036B02019C697A0E0A
:101F40009F6F0B0EA06F010E9A6FA16BA26BA36B1C
:101F5000A46BA56FA66B12008DEC4AF000D01200A6
:101F60000D01010E446F8FEC48F0A3D8000904E086
:101F70000FEC2EF0000E1AD00F01015114E10F01E9
:101F8000036B02019B0501E19B699C0501E19C69D2
:101F90000F01F20E066F050E076F11EC2BF0000912
:101FA00002E10D01446B0D01445100D012000D01FE
:101FB000010E0C6F21D8000912E0800E0F01046F92
:101FC000056BBEEC2AF0000907E00D01010E0C6F55
:101FD0000201B46F66D802D00D010C6B05D00D0163
:101FE0000C6B0401010E216F0D010C5100D0120089
:101FF0000201B46B51EF10F00F01015109E10F0123
:10200000035102E0030504E1036B010E03D002D08B
:10201000000E00D01200B0C208FFB1C209FF73EC7D
:102020002BF0E6DF010E00D012000D01010E2F6F24
:10203000000EB2C2E9FFB3C2EAFFEE6EED6A020E15
:102040000F01025D04E10F010D6BB3EC2BF085EC89
:102050002BF0F3CF14F0F4CF15F0B2C2E9FFB3C206
:10206000EAFF14C0EEFF15C0EDFFB2C2E9FFB3C234
:10207000EAFF000ED880EE54000EED540AE303018F
:10208000310EFB6F030EFC6F0301040EFA6F46EC7A
:102090004DF00201010EB46F04D80D012F5100D094
:1020A00012000201B45102E10F01026BB4C220F42C
:1020B00012000401205100D012000201010E9A6F9B
:1020C000120002019A5106E00D01750E006F0B0E11
:1020D000016F2FD0A1C214F0A2C215F0166A176AC0
:1020E000750E145C0B0E1558000E1658000E17587E
:1020F0001DE2750E186E0B0E196E1A6A1B6AA1C2CC
:102100001CF0A2C21DF01E6A1F6A1C50185C146EDF
:102110001D501958156E1E501A58166E1F501B5818
:10212000176E14C000FD15C001FD03D00D01006B3A
:10213000016B00CDF3FF01CDF4FF00D012000D01C3
:10214000166B176B0301FF5105E116CDF3FF17CD99
:10215000F4FF3DD0FF6B8FEC48F085EC2BF0F3CF14
:1021600016FDF4CF17FD0D01000ED8801655000E98
:1021700017550AE30301B20EFB6F030EFC6F030158
:10218000040EFA6F46EC4DF064EC4DF0020E0F01B8
:10219000306F316B0F01180E2E6F0D0E2F6F0F0168
:1021A0002C6B2D6B14EC2DF0030E0D01185D0AE065
:1021B0000301B80EFB6F030EFC6F0301040EFA6FF0
:1021C00046EC4DF016CDF3FF17CDF4FF00D0120012
:1021D0000201A66B020E0F01025D06E18FEC48F0D2
:1021E0000F010D6BB3EC2BF00F01026B02019B5141
:1021F00001E19B699C5101E19C69A1DFF3CF00FDE6
:10220000F4CF01FD0D010051011102E1000E7DD05E
:102210000F01020E166F0D0E176F140E0F01146FC3
:10222000156B0A0E0F01126F136B0F01116B21EC6E
:102230002CF0AA0E0D01025D0CE1AA0E035D09E16E
:10224000030E045D06E1055104E1065102E1075168
:1022500004E065EC2BF0000E58D00201010E9A6FDD
:102260000F010D6BB3EC2BF00F010E6BC3EC2BF0D9
:102270001E0E0F01286F296B0F01266B276BA9EC2F
:102280002CF000CDA1F201CDA2F202019B6B140E45
:102290009D6F9E6B14CDF5F315CDF6F335EC47F03D
:1022A000F3CF14FDF4CF15FD060EE66EE66A0E0EB2
:1022B000E66E0D0EE66EB5C2E9FFB6C2EAFFE9CFE3
:1022C00014F0EACF15F014C0E6FF15C0E6FF90EC5D
:1022D00049F0166E060EE15E1650B7C2E9FFB8C2AD
:1022E000EAFFEF68080E0D01155D0BE1145103E0E4
:1022F000060E145D06E1B7C2E9FFB8C2EAFF14CDCD
:10230000EFFF02019A6B010E00D012000201A56BD3
:102310000E0EBC25A36F000EBD21A46F040EA327D3
:10232000000EA4237A0E9F6F0B0EA06F0201010E08
:10233000AF6F78EC0DF0060EE66EE66AB9C2E6FF06
:10234000BAC2E6FF1C0EE66E0D0EE66E90EC49F08A
:10235000146E060EE15E14500D01AA0E226F236F5B
:10236000030E246F256B266B276B080E286F020166
:10237000BB5102E1000E01D0060E0D01296F0E0EB9
:102380000201D56FD66B02011C0ED36F0D0ED46FF8
:102390006EEF15F00F01015109E103017D0EFB6F96
:1023A000040EFC6F0301FA6F46EC4DF00201A551DB
:1023B00009E00301800EFB6F040EFC6F0301FA6F4E
:1023C00046EC4DF00201010EA56F020E0F01035DF8
:1023D00005E00F01010E0E6FC3EC2BF00201A351BB
:1023E000A41109E103018E0EFB6F040EFC6F0301C3
:1023F000FA6F46EC4DF0A3C23FFFA4C240FFF3ECDE
:102400002DF002019B0501E19B699C0501E19C699E
:102410001200BEC214F0BFC215F0166A176A140E7D
:102420001426000E15221622172214C09DF215C084
:102430009EF20201AF6B78EF0DF09FC236FDA0C295
:1024400037FDC0C29FF2C1C2A0F20201010EAF6F00
:1024500078EC0DF036CDF3FF37CDF4FF00D012004D
:102460009DC234FD9EC235FDC2C29DF2C3C29EF222
:102470000201AF6B78EC0DF034CDF3FF35CDF4FFF6
:1024800000D01200C4C214F0C5C215F0166A176A53
:10249000140E1426000E15221622172214C01CFD3D
:1024A00015C01DFD9DC21EFD9EC21FFD1CCD9DF2CF
:1024B0001DCD9EF20201AF6B78EC0DF0C6C2F3F3B6
:1024C000C7C2F4F3B0EC46F0F3CF1CFDF4CF1DFD12
:1024D0001ECD9DF21FCD9EF20201AF6B78EC0DF088
:1024E0001CCDF3FF1DCDF4FF00D012000D01006BD9
:1024F000016B026B036B06690201C9AF11D00D01BC
:10250000010E046F9FC2C8F2A0C2C9F2FF0E020101
:102510009C5D05E10201010EAF6F78EC0DF00FD06C
:102520000D01046B9FC202FDA0C203FDC8C29FF251
:10253000C9C2A0F20201010EAF6F78EC0DF00201EA
:10254000CBAF10D00D01010E056F9DC2CAF29EC225
:10255000CBF2FF0E02019B5D04E10201AF6B78EC50
:102560000DF00ED00D01056B9DC200FD9EC201FD58
:10257000CAC29DF2CBC29EF20201AF6B78EC0DF0A5
:102580000201000ED880CC55000ECD5501E3E6D1F6
:10259000C8C214F0C9C215F0166A176A560E145C48
:1025A000170E1558000E1658000E175801E2D6D116
:1025B000CAC218F0CBC219F01A6A1B6A560E185C10
:1025C000170E1958000E1A58000E1B5801E2C6D1FA
:1025D000CCC213FDCDC214FD0F01020503E10D01B4
:1025E000066B10D0030504E10D01010E066F0AD041
:1025F00003017B0EFB6F050EFC6F0301040EFA6FE7
:1026000046EC4DF00D0106510F012A6F2B6BFDECCE
:102610002CF0F3CF15FDF4CF16FD0201CA51CC25E5
:10262000146ECB51CD21156E1450C85D1550C9598B
:1026300011E2C851CC25166EC951CD21176E165026
:10264000CA5D1750CB5906E2CA51C85DCB51C95972
:1026500001E38BD0CAC214F0CBC215F0166A176A18
:10266000560E145E170E155A000E165A175A14C03D
:1026700011FD15C012FDC8C214F0C9C215F0166ACA
:10268000176A560E145E170E155A000E165A175A70
:1026900014C00FFD15C010FD0D01000ED88013559C
:1026A000000E145561E2080E135D000E145930E35C
:1026B0000F01070E166F0D0E176F080E0F01146F26
:1026C000156B11CD12FF12CD13FF06CD11FF21ECBA
:1026D0002CF00F01070E1D6F0D0E1E6F080E0F015F
:1026E0001B6F1C6B0FCD19FF10CD1AFF06CD18FF05
:1026F0003AEC2CF0080E0D011127000E1223080EE3
:102700000F27000E1023080E135F000E145B2BD052
:10271000000ED8801355000E145525E20F01070E48
:10272000166F0D0E176F13CD14FF14CD15FF11CDBD
:1027300012FF12CD13FF06CD11FF21EC2CF00F017B
:10274000070E1D6F0D0E1E6F13CD1BFF14CD1CFF4A
:102750000FCD19FF10CD1AFF06CD18FF3AEC2CF063
:102760000D01136B146B98D7EDD0C851CA5DC951D8
:10277000CB5901E3E7D0CAC218F0CBC219F01A6AEC
:102780001B6A560E185E170E195A000E1A5A1B5A5B
:10279000CCC21CF0CDC21DF01E6A1F6A18501C244A
:1027A000146E19501D20156E1A501E20166E1B50E7
:1027B0001F20176E1406000E155A165A175A14C009
:1027C00011FD15C012FDC8C218F0C9C219F01A6A6D
:1027D0001B6A560E185E170E195A000E1A5A1B5A0B
:1027E000CCC21CF0CDC21DF01E6A1F6A18501C24FA
:1027F000146E19501D20156E1A501E20166E1B5097
:102800001F20176E1406000E155A165A175A14C0B8
:102810000FFD15C010FD0D01000ED8801355000EE0
:10282000145501E38FD0080E135D000E145940E3D8
:102830000F01070E166F0D0E176F080E0F01146FA4
:10284000156B11CD12FF12CD13FF0F01125F000E99
:10285000135B010E1227000E132306CD11FF21EC8E
:102860002CF00F01070E1D6F0D0E1E6F080E0F01CD
:102870001B6F1C6B0FCD19FF10CD1AFF0F01195FD5
:10288000000E1A5B010E1927000E1A2306CD18FF41
:102890003AEC2CF0080E0D01115F000E125B080ED1
:1028A0000F5F000E105B080E135F000E145B49D023
:1028B000000ED8801355000E145543E20F01070E89
:1028C000166F0D0E176F13CD14FF14CD15FF0F01EA
:1028D000010E145F000E155B0D011351115D0F0108
:1028E000126F0D01145112590F01136F010E1227AF
:1028F000000E132306CD11FF21EC2CF00F01070E63
:102900001D6F0D0E1E6F13CD1BFF14CD1CFF0F018D
:10291000010E1B5F000E1C5B0D0113510F5D0F01BB
:10292000196F0D01145110590F011A6F010E19275B
:10293000000E1A2306CD18FF3AEC2CF00D01136B94
:10294000146B69D715CD28FF16CD29FF0D0106514F
:102950000F01266F276BA9EC2CF01ED0000ED8803B
:10296000CC55000ECD5518E2FF0E9B5D03E0FF0E27
:102970009C5D0AE10301D20EFB6F050EFC6F0301A3
:10298000040EFA6F46EC4DF0CCC20BFFCDC20CFF2B
:102990009CC20AFFA1EC2BF00D01055108E100CD0E
:1029A0009DF201CD9EF20201AF6B78EC0DF00D01AE
:1029B000045109E102CD9FF203CDA0F20201010E04
:1029C000AF6F78EC0DF01200010E00D01200FF0E78
:1029D00002019B5D04E10201AF6B78EC0DF0010E8A
:1029E0000F01306F316B0F01360E2E6F0D0E2F6FF2
:1029F00002019B510F012C6F2D6B14EC2DF0020185
:102A00009D2B000E9E230D01365100D012000D01AA
:102A1000A16BA26BFF0E02019B5D04E10201AF6B93
:102A200078EC0DF00201CE51CF110FE0D0C230FF93
:102A3000D1C231FFCEC22EFFCFC22FFF9B510F015B
:102A40002C6F2D6B14EC2DF01ED00201D0510D0116
:102A5000A15D0201D1510D01A25915E2010E0F0134
:102A6000306F316B0F01A30E2E6F0D0E2F6F020111
:102A70009B510F012C6F2D6B14EC2DF00D01A12B30
:102A8000000EA223E2D70201D0519D27D1519E23EF
:102A9000D0C2F3FFD1C2F4FF00D01200D2C234FD85
:102AA000FF0E02019C5D05E10201010EAF6F78ECA3
:102AB0000DF0010E0F01366F376B0F01340E346FBE
:102AC0000D0E356F02019C510F01326F336B41ECDB
:102AD0002DF002019F2B000EA0231200FF0E020119
:102AE0009C5D05E10201010EAF6F78EC0DF0D5C2DF
:102AF00036FFD6C237FFD3C234FFD4C235FF02013E
:102B00009C510F01326F336B41EC2DF00201D55116
:102B10009F27D651A0231200FF0E02019C5D05E104
:102B20000201010EAF6F78EC0DF0D9C23CFFDAC2A2
:102B30003DFFD7C23AFFD8C23BFF02019C510F01B3
:102B4000386F396B6BEC2DF00201D9519F27DA51A8
:102B5000A0231200120012000201A56B7A0E9F6FD3
:0E2B60000B0EA06F0201010EAF6F78EF0DF0AB
:022B6E00F3EC86
:102B70001AF0FB0EDBCFF3FFDB06F35000090AE08F
:102B800041EC1BF0FA0EACEC1BF0F3E1151CF1E18B
:102B9000010E01D0000E22EF1BF0F3EC1AF03B0EF9
:102BA000E12402E3E168E652E16E010EDB6A020E07
:102BB000DB6AF90EDBCFF6FFFA0EDBCFF7FFFB0E79
:102BC000DBCFF8FF0800F550DF6EDF5002E146EF83
:102BD0001AF0250EDF5C02E039EF1AF0030EDB6A13
:102BE000040EDB6A050EDB6A060EDB6A070EDB6A83
:102BF0005BEC1AF02D0EDF5C0CE02B0EDF5C09E0C5
:102C0000200EDF5C06E0230EDF5C03E0300EDF5CAD
:102C10001AE1DF50300A14E0130A0FE0030A0AE059
:102C20000B0A05E0060AE4E1030EDB80E1D7030EA0
:102C3000DB82DED7030EDB84DBD7030EDB86D8D73F
:102C4000030EDB88D5D72A0EDF5C1BE157EC1AF0A8
:102C5000A5EC1AF010E0030EDB8008680968130E7B
:102C6000DBCF0DF0140EDBCF0EF02CEC4CF0040E8D
:102C700006C0DBFF03D0130E8EEC1AF05BEC1AF0EB
:102C80000BD0090EDB6AFCEC1AF003E070EC1BF0D1
:102C9000FAD7090E8EEC1AF0030EDBB0DB982E0E7D
:102CA000DF5C1BE15BEC1AF02A0EDF5C0BE157ECFA
:102CB0001AF0A5EC1AF003E1130EE0EC1AF05BEC4D
:102CC0001AF00BD0090EDB6AFCEC1AF003E070EC92
:102CD0001BF0FAD7090EE0EC1AF0680EDF5C07E192
:102CE0005BEC1AF0680EDF5C1DE1030E18D0740E69
:102CF000DF5C17E07A0EDF5C14E0480EDF5C06E074
:102D0000540EDF5C03E05A0EDF5C02E1020E07D0D6
:102D10006C0EDF5C03E06A0EDF5C04E1010E33EC55
:102D20001BF0C9DBDF506E0A01E17FD31E0A01E10F
:102D300092D1200A01E18FD13F0A01E149D11A0A5B
:102D400001E146D10D0A01E143D1200A01E140D160
:102D50003A0A01E13DD1200A01E13AD1260A01E116
:102D600035D10D0A01E132D11A0A01E1D9D0200A88
:102D70004AE0300A1FE0460A0EE0250A01E083D34C
:102D8000D950F90FE96EFF0EDA20EA6E010EEE5E01
:102D9000000EEE5AEE5A41EC1BF0250EE66E95DB66
:102DA00003E1151C01E169D33DEC1BF001E26BD39B
:102DB000DB2A69D3080EDB6A040EDB50010806E249
:102DC000040EDB0405EC1BF0DB508BDB080EDB5044
:102DD00009E0030EDB50010B05E172DB01E04DD38E
:102DE000080EDB6A64DBEFCFDFFFB5EC1BF003E11D
:102DF000151C01E142D33DEC1BF001E3DB2A60DB53
:102E000001E141D33AD3070EDB5002080FE181EC18
:102E10001BF0030E48EC1BF00E0EEECFDBFF0F0E87
:102E2000EECFDBFF100EEECFDBFF20D0F70EDBCFB7
:102E300017F0F80EDBCF18F0020E175E000E185ACE
:102E4000F70E17C0DBFFF80E18C0DBFF17C0E9FF55
:102E500018C0EAFF38EC1BF0166A0E0E14C0DBFF38
:102E60000F0E15C0DBFF100E16C0DBFF0E0EDBCF02
:102E7000E6FF0F0EDBCFE6FF100EDBCFE6FFE3EC45
:102E800049F0E552E552E552130E07C0DBFF140E80
:102E900008C0DBFF060EDB5005E0130E7CEC1BF0D8
:102EA00001E26ADBA0EC1BF002E2130E37DB63ECFD
:102EB0001BF006E0040E7CEC1BF002E2050E2EDB9C
:102EC000030EDBB005D0FCDA01E0D7D2080EDB6AD6
:102ED000090EDB6A0E0EDBCFF6FF0F0EDBCFF7FF1E
:102EE000100EDBCFF8FF0800F550DF6EDF5014E066
:102EF000A6EC1BF011E2B5EC1BF003E1151C01E19F
:102F0000BCD2BBDB01E3DB2A090EDB2AD9500E0F52
:102F1000E96E000ECBDBE7D7D3DA01E1B4D2ADD254
:102F2000C6DA110EEECFDBFF120EEDCFDBFF110E76
:102F3000DBCFE6FF120EDBCFE6FFD5EC49F0E55222
:102F4000E552130EF3CFDBFF140EF4CFDBFF060EBA
:102F5000DB5004E0130ED0DB01E20EDBA0EC1BF033
:102F600002E2130EDBDAAFDB05E0040EC5DB02E2A2
:102F7000050ED4DA030EDBB005D0A2DA01E07DD273
:102F8000080EDB6A090EDB6A110EDBCFE9FF120EB9
:102F9000DBCFEAFFEFCFDFFFDF5014E0D7DB12E239
:102FA000E4DB03E1151C01E168D267DB01E3DB2A06
:102FB000090EDB2A110EDB2ADBCFE9FF120EE8E354
:102FC000DB2AE6D77DDA01E15ED257D2030EDB8E33
:102FD000070EDB0410E195DB040E5ADB0A0EEECF80
:102FE000DBFF0B0EEECFDBFF0C0EEECFDBFF0D0E8B
:102FF000EECFDBFF6CD0070EDB5003082CE1030E95
:10300000DBAE0DD0B2DA020E76DAEFCF14F0156A2D
:10301000166A176A14AE39D01568166835D0F70EDF
:10302000DBCF15F0F80EDBCF16F0020E155E000EAA
:10303000165AF70E15C0DBFFF80E16C0DBFF15C0E1
:10304000E9FF16C0EAFFEFCF14F00A0E14C0DBFF51
:103050000B0EDB6A38D0070EDB50020809E1030EC5
:10306000DBAE04D059DB16AE10D00ED055DB0DD040
:10307000030EDBAE12D079DA020E3DDAF9DA166A07
:10308000176A15AE02D016681768E2DA0C0E16C081
:10309000DBFF0D0E17C0DBFF1AD0F70EDBCF16F0EB
:1030A000F80EDBCF17F0020E165E000E175AF70E61
:1030B00016C0DBFFF80E17C0DBFF16C0E9FF17C014
:1030C000EAFFD6DAC5DA0C0EDB6A0D0EDB6A060EF5
:1030D000DB5005E1010EF36E050EF3CFDBFF150E9D
:1030E000DB6A160EDB6AD950370F146E000EDA2039
:1030F000156E390E14C0DBFF3A0E15C0DBFF380E1B
:10310000DB6A080EDB6A0A0EAEDADF50780A12E0DC
:10311000200A10E0280A0CE0200A0AE03F0A06E034
:103120000D0A02E0200A08E1020E05D0080E03D0C5
:10313000080EDF26100E97DA030EDBBE02D0DB92FC
:10314000DB94DB50800B24E08ADAD890030EEB503E
:10315000000A08E6000EEE5C000EEE58000EEE5877
:10316000000EEE5815E213DA0B680C680D680E6855
:10317000E0EC4CF00A0E02C0DBFF0B0E03C0DBFFDD
:103180000C0E04C0DBFF0D0E05C0DBFF2D0E08D0BA
:10319000030EDBA202D02B0E03D0DBA408D0200E3E
:1031A000F36E170EF3CFDBFF150EDB2A02D0170EDE
:1031B000DB6A050EDB5003E1B7D901E189D0E00EEF
:1031C000146E9B0E156E000E166E070EDBCF17F0F9
:1031D000186A196A1A6A17C00BF018C00CF019C0E7
:1031E0000DF01AC00EF0D3D970EC4DF0145002243B
:1031F000F36E15500320F46E16500420F86EF4CFD1
:10320000F7FFF3CFF6FF0800090EF5CFDBFF580EEE
:10321000DF5C0FE1610EF36E090E7BD90AE3200E2D
:10322000146E090EDBCFE7FF1450E75E090EE7CFFF
:10323000DBFF070EDBCF14F0156A166A176A0FDA88
:1032400014C00BF015C00CF016C00DF017C00EF036
:10325000EECF06F0EECF07F0EECF08F0EFCF09F09B
:1032600070EC4DF009C0EDFF08C0EDFF07C0EDFFA9
:1032700006C0EFFF390EDBCFE9FFDB063A0EDBCFEE
:10328000EAFF01E2DB06090EDBCFEFFF150EDB2ABA
:103290004BD995E1030EDBA61DD06F0EDF5C06E176
:1032A000C1D918E3150EDB285BDA14D0780EDF5C89
:1032B00009E0580EDF5C06E0620EDF5C03E0420EC0
:1032C000DF5C08E1020EF36E160EF3CFDBFF02D0D7
:1032D000150EDB6A030EDB50100B0EE0040EDBCF85
:1032E00014F0050EDB50D880145406E2060EDB50B5
:1032F00003E1040EDB5034DA95D90AE2050EDBCF88
:10330000E7FF150EDB50E75E050EE7CFDBFF02D0CF
:10331000050EDB6A040EDBCF14F0160E45D9D880FB
:10332000145414E2160EDBCFE6FF150EDBCFE6FFDA
:10333000040EDBCFE6FF050EDB50E552E75CE552FD
:10334000D880E754E552D880E7545FD9030EDB50AC
:10335000010B0BE1080EDB5008E0B2D801E08DD084
:10336000080EDB50BED8080EDB6A170EDB5007E0F4
:1033700088D9170EF1D903E1151C01E17ED0160E94
:10338000DB5016E07ED9300EE66E9FD802E1151CA8
:1033900074E077D9DFCFE6FF9EEC4CF0E552E552C2
:1033A000E552F4CF15F00001F31C02E1151C65E0B5
:1033B000050EDBCF14F0160EDB50D880145409E252
:1033C000050EDBCFE7FF160EDB50E75E050EE7CFFD
:1033D000DBFF300EE66E050ECBD94FE1390EDB2A4E
:1033E000DBCFE9FF3A0E01E3DB2ADBCFEAFF090E70
:1033F000EFCFDBFFDB500EE044D9090EADD902E17F
:10340000151C3BE0390EDB2ADBCFE9FF3A0EEDE37A
:10341000DB2AEBD755D831E1160EDBCFE6FF080EDD
:10342000C3D8E552E7245DD82ED0070EDB50030A3F
:103430001CE0010A14E0030A07E07BD9DBCFEEFFB2
:10344000020EDBCFEDFF1FD0F5D8196A17AE02D000
:10345000186819682CD8BCD819C0EEFF14D0EAD867
:1034600017BE186824D8B4D80ED063D9DBCFEFFFCD
:103470000AD07BD905E1151C03E1F368F46810D08C
:10348000FCD801E3DB2A79D9E2EF15F0010EDBCF9E
:1034900014F0020EDBCF15F014C0F3FF15C0F4FFDB
:1034A0003B0EE15C02E2E16AE552E16ECBD029D944
:1034B000020E48EF1BF061D90800F550DF6E1200D4
:1034C000200EE66E080EB8EF1BF09EEC4CF0E552B5
:1034D000E552E552F3CF14F0F4CF15F00001F31CE0
:1034E0001200146E156AD950010F4DD91450EE26F2
:1034F0001550ED221200185E000E195AF70E18C072
:10350000DBFFF80E19C0DBFF18C0E9FF19C0EAFFA6
:103510001200DBCFF4FFF350F45C1200DB50E76ED7
:10352000040EE7CFDBFF12000A0EDBCF14F00B0E08
:10353000DBCF15F00C0EDBCF16F00D0EDBCF17F046
:1035400014501510161017101200130EEECFDBFFDB
:10355000140EEDCFDBFF130EDBCF14F0140EDBCF18
:1035600015F00001800E15141200F70EDBCF18F0D5
:10357000F80EDBCF19F01200050EDB50E66ED950C5
:10358000130F01D9E552E750EE6EED6A12000A0EF4
:10359000DBCF06F00B0EDBCF07F00C0EDBCF08F015
:1035A0000D0EDBCF09F01200DBCFE6FF150EDBCFEF
:1035B000E6FF050EDB50E552E724E552E724120052
:1035C000DB50CED8010EF36E060EF3CFDBFF1200F8
:1035D000EE50EFCFEAFFE96E16C0EEFF17C0EEFF28
:1035E00018C0EEFF1200D9CFE6FFDACFE6FFE1CF39
:1035F000D9FFE2CFDAFF1200DFCFE6FFE66A94ECF4
:103600004DF0E552E552F3501200E76E080EE7CF99
:10361000DBFF1200EECF14F0EECF15F0EFCF16F077
:10362000176A1200050EDBCF14F0150EDB50D880A0
:1036300014541200010EDBCF16F0020EDBCF17F090
:10364000186A1200E552E5CFDAFFE7CFD9FF120082
:103650000A0E14C0DBFF0B0E15C0DBFF1200D950A1
:103660000A0FC3EF1BF0F36E070EF3CFDBFF120060
:10367000EECF14F0EFCF15F01200010EDB2A020E90
:103680001200FC0EDBCFE6FFFD0EDBCFE6FF1200E3
:10369000145E000E155AF70E14C0DBFFF80E15C0AD
:1036A000DBFF14C0E9FF15C0EAFF1200DA20EA6E62
:1036B000EF2AEECFF6FF000EEF22EECFF7FFEF225C
:1036C000EECFF8FF1200040EDBCFE6FF130EDB5047
:1036D000E552E75C9ADFDB5004DF060EDB50120098
:1036E000090EDB500A0DF350DF24D00FE76E090EF0
:1036F000E7CFDBFF5BEF1AF0DB50F36E050E89EFCF
:103700001AF0F70EDBCF14F0F80EDBCF15F0120035
:10371000DFCFE6FF65EF1AF028DF030EECDE0AEFDD
:103720001BF0B7EC15F0E552E552E552E552000901
:103730001200BDDEEE50EFCFEAFFE96E010E12007F
:10374000130EDB50F36E040E89EF1AF0040EDB50FB
:10375000F36E090E89EF1AF0DBCFE6FF65EF1AF082
:10376000E76E050EE7CFDBFF12008BDF88EF1BF063
:10377000DBCFE6FF86DF91EF1BF0D950F90FE96E42
:10378000FF0E56EF1BF0E96E000EDA20EA6E120013
:10379000040129510CE1010E296F0D01006B010E8E
:1037A000005D05E20201DB690D01002BF8D7FF0E79
:1037B0000201DB5D06E0DBC290F1E0EC26F00201E5
:1037C000DB69010EDC6FDD6BDD89DD831200FF0E2E
:1037D0000201DB5D06E0DBC290F1E0EC26F00201C5
:1037E000DB69DC6B12000201DC5103E1010EDC6FCE
:1037F000DD9112000201DC5102E1000E01D0010E48
:1038000000D012000201DD51010B00D012000201B4
:10381000DDA303D0DD93010E02D0000E00D0120014
:103820000201DD51080B01E0010E00D012000D0174
:10383000196B010E195D01E31ED20201DC51080A69
:1038400001E1C2D1020A01E1BFD1060A01E1BCD106
:103850000B0A01E195D10E0A01E192D1020A01E1C0
:103860008FD10D0A01E149D1030A01E1DFD0010A3C
:1038700001E19DD0070A6AE0010A1BE0030A04E0A7
:10388000010A01E0F5D1F4D1430E01018C6F8D6B7B
:1038900001018A6B8B6B440E0101886F896B4BECC5
:1038A00026F00201DB6FFF0EDB5D01E1E1D1020ECC
:1038B000DC6F3C0EE26FE36BE46BE56BF66BDD9166
:1038C000DD95ACEC0FF0000901E1D2D1DBC295F13E
:1038D0003CEC27F0F3CF14F0F4CF15F02C0E145C71
:1038E000010E155801E2C4D10201DD790A0EE66E1F
:1038F000E66AE668DB510E0DF3CFE9FFF4CFEAFF8D
:10390000000EE926010EEA22E9CF14F0EACF15F005
:1039100014C0E6FF15C0E6FFBBEC49F0166E050EBD
:10392000E15E16500201FF6B0201010EFE6F5CDBCF
:10393000AFEC4AF006C0DEF207C0DFF208C0E0F2EA
:1039400009C0E1F20201030EDC6F92D1DBC2A3F1E8
:10395000D2EC28F0F3CF14F0F4CF15F0FA0E145C8B
:10396000000E15581BE2AFEC4AF00201DE51065C76
:10397000146EDF510758156EE0510858166EE1516C
:103980000958176E2E0E145C310E1558010E16587C
:10399000000E175802E3020EDC6F6AD10201DD87C8
:1039A0006BD9020801E064D10201040EDC6FDBC2B6
:1039B00095F13CEC27F0F3CF14F0F4CF15F0020EA4
:1039C000145C010E155801E253D10A0EE66EE66A48
:1039D000E6680201DB510E0DF3CFE9FFF4CFEAFFF9
:1039E000000EE926010EEA22E9CF14F0EACF15F025
:1039F00014C0E6FF15C0E6FFBBEC49F0166E050EDD
:103A0000E15E16500201FF6B0201030EFE6FECDA5D
:103A1000AFEC4AF006C0DEF207C0DFF208C0E0F209
:103A200009C0E1F20201050EDC6F22D1DBC2A3F175
:103A3000D2EC28F0F3CF14F0F4CF15F0FA0E145CAA
:103A4000000E15581BE2AFEC4AF00201DE51065C95
:103A5000146EDF510758156EE0510858166EE1518B
:103A60000958176E2E0E145C310E1558010E16589B
:103A7000000E175802E3020EDC6FFAD0FDD8060ADA
:103A800037E0030A01E038D0DBC290F1E0EC26F029
:103A90000201DB69AFEC4AF006C0DEF207C0DFF2DC
:103AA00008C0E0F209C0E1F20201060EDC6FDD831E
:103AB000DD81F6A108D0EAC201F2EBC202F2ECC24B
:103AC00003F2EDC204F2F6A508D0F2C205F2F3C289
:103AD00006F2F4C207F2F5C208F2F6A308D0EEC26D
:103AE00009F2EFC20AF2F0C20BF2F1C20CF204D0FA
:103AF0000201020EDC6F00D0BBD0AFEC4AF0020135
:103B0000DE51065C146EDF510758156EE0510858FF
:103B1000166EE1510958176E970E145C980E1558E1
:103B2000000E1658000E175801E2A2D0020EE25DF8
:103B3000000EE359000EE459000EE5590CE3970E10
:103B4000DE27980EDF23000EE023E123E207E35B8C
:103B5000E45BE55B8DD0430E01018C6F8D6B010141
:103B60008A6B8B6B440E0101886F896B4BEC26F0DE
:103B70000201DB6FFF0EDB5D01E17AD0070EDC6F27
:103B8000DBC295F13CEC27F0F3CF14F0F4CF15F045
:103B9000020E145C010E155801E26AD00201010EFA
:103BA000FF6F0201030EFE6F1FDA0201DD95AFEC1D
:103BB0004AF006C0DEF207C0DFF208C0E0F209C03A
:103BC000E1F20201DC2B54D0DBC2A3F1D2EC28F0ED
:103BD000F3CF14F0F4CF15F0FA0E145C000E155864
:103BE00027E2AFEC4AF00201DE51065C146EDF51B1
:103BF0000758156EE0510858166EE1510958176EB6
:103C00002E0E145C310E1558010E1658000E175862
:103C10000EE3DC2B0C0EE76EDC19E8AE02D0DC35CF
:103C200003D0E750D880DC5502E2020EDC6F20D0D2
:103C300023D8060A18E0030A01E019D0DBC290F18C
:103C4000E0EC26F00201DB69AFEC4AF006C0DEF2E0
:103C500007C0DFF208C0E0F209C0E1F20201060E7F
:103C6000DC6FDD8304D00201020EDC6F00D000D0D7
:103C70000D01192BDED512000D01036B0101000EA1
:103C8000A46F0D0EA56FF1EC28F0020E0D01005D82
:103C900001E080D11C0E0101936F946B2BEC27F097
:103CA0000D01016B060E015D14E20101000EA46F0F
:103CB0000D0EA56FF1EC28F00D010151EA6A2E0FEF
:103CC000E96E020EEA22EF50005D01E088D1012B7F
:103CD000E9D70201DDB513D0100E0101936F946B8B
:103CE0002BEC27F0040E0101A86FA96B0101EA0E6D
:103CF000A66F020EA76F0BEC29F00201F681F00E01
:103D00000101936F946B2BEC27F00D01046B010103
:103D1000000EA46F0D0EA56FF1EC28F0000904E170
:103D20000D01010E046F36D10D010051330A01E17E
:103D3000C3D0CC0A01E1BDD0C90A01E190D0350A57
:103D400050E0020A20E0340A01E00CD10101000E2B
:103D5000A46F0D0EA56FF1EC28F00D01000511E127
:103D60000101030EA46F0D0EA56FF1EC28F0020106
:103D7000DD51040B05E0020E0D01035D01E12FD1C1
:103D800001D02DD103D10101000EA46F0D0EA56F3E
:103D9000F1EC28F0040E0D01005D21E10201DDA52A
:103DA00010D00D01016B040E015D0AE20101000E4D
:103DB000A46F0D0EA56FF1EC28F00D01012BF3D7C8
:103DC0000DD0040E0101A86FA96B0101F20EA66FC0
:103DD000020EA76F0BEC29F00201F68501D0FFD08F
:103DE000D5D00101020EA46F0D0EA56FF1EC28F0E5
:103DF000040E0D01025D21E30201DDA510D00D01CD
:103E0000016B040E015D0AE20101000EA46F0D0EAC
:103E1000A56FF1EC28F00D01012BF3D70DD0040EA6
:103E20000101A86FA96B0101EE0EA66F020EA76F2C
:103E30000BEC29F00201F68301D0D1D0040E0D0164
:103E4000025F0D0102510207000908E00101000EA6
:103E5000A46F0D0EA56FF1EC28F0F3D797D00101F8
:103E6000000EA46F0D0EA56FF1EC28F0040E0D01ED
:103E7000005D1DE10101080EA46F0D0EA56FF1ECB0
:103E800028F00101070EA46F0D0EA56FF1EC28F0CC
:103E90000101060EA46F0D0EA56FF1EC28F00101D3
:103EA000050EA46F0D0EA56FF1EC28F001D097D090
:103EB0006DD0010E046F6AD00101000EA46F0D0ECB
:103EC000A56FF1EC28F0040E0D01005D49E102013F
:103ED000DDA510D00D01016B040E015D0AE20101A8
:103EE000000EA46F0D0EA56FF1EC28F00D01012B53
:103EF000F3D735D00101E50EA46F020EA56FF1ECEA
:103F000028F00101E40EA46F020EA56FF1EC28F079
:103F10000101E30EA46F020EA56FF1EC28F0010180
:103F2000E20EA46F020EA56FF1EC28F0E2C214F0CD
:103F3000E3C215F0E4C216F0E5C217F0050ED89002
:103F40001732163215321432E806F9E11450020124
:103F5000E25F1550E35B1650E45B1750E55B01D060
:103F60003ED014D00101020EA46F0D0EA56FF1EC2E
:103F700028F00D0102510207000908E00101000EBE
:103F8000A46F0D0EA56FF1EC28F0F3D70D010451CD
:103F900001E1BDD6020E035D0BE105CDE6F206CDD3
:103FA000E7F207CDE8F208CDE9F20201DD8512D093
:103FB000E60EE96E020EEA6EEE50051909E1EE50CA
:103FC000061906E1EE50071903E1EE50081900E169
:103FD00001E0036B48EC29F00D01035104D048ECDB
:103FE00029F0000E00D012000101010E966F71EC55
:103FF00027F00101010E966F71EC27F00101060E0A
:10400000966F71EC27F00101966B71EC27F00101BE
:10401000120E966F71EC27F00101230E966F71EC72
:1040200027F00101340E966F71EC27F00101560E56
:10403000966F71EC27F00101966B71EC27F001018E
:10404000966B71EC27F00201DD51100B02E0000EBF
:1040500001D0800E0101966F71EC27F00101966B83
:1040600071EC27F0030E0201FE5D0EE1FF510CE042
:10407000040E0101996F9A6B0101EA0E976F020E0F
:10408000986F96EC27F010D00101966B71EC27F039
:104090000101966B71EC27F00101966B71EC27F032
:1040A0000101966B71EC27F00D01146B0C0E145D81
:1040B00007E20101966B71EC27F00D01142BF6D786
:1040C000060E0101996F9A6B01012E0E976F020E79
:1040D000986F96EC27F00D01146BCA0E145D07E281
:1040E0000101966B71EC27F00D01142BF6D701013D
:1040F000630E966F71EC27F00101820E966F71ECE2
:1041000027F00101530E966F71EC27F00101630E49
:10411000966F71EC27F00101350E966F71EC27F068
:104120000101010E966F71EC27F0FEC296F171EC61
:1041300027F00201FE0501E1DD95030EFE5D1CE1A5
:10414000FF511AE10101360E966F71EC27F0010163
:10415000040E966F71EC27F0E9C296F171EC27F02E
:10416000E8C296F171EC27F0E7C296F171EC27F006
:10417000E6C296F171EC27F00101370E966F71ECF3
:1041800027F00101040E966F71EC27F00101010E7A
:10419000966F71EC27F00101030E966F71EC27F01A
:1041A0000101060E966F71EC27F001010C0E966F5F
:1041B00071EC27F0030E0201FE5D02E1FF5107E002
:1041C000FE051AE1EA51EB11EC11ED1115E00101C8
:1041D000320E966F71EC27F00101040E966F71ECB0
:1041E00027F0040E0101996F9A6B0101EA0E976F97
:1041F000020E986F96EC27F00101966971EC27F09A
:1042000001012C0E7F5D010E805905E20101966BC4
:1042100071EC27F0F5D701C215FD02C216FD03C2ED
:1042200017FD04C218FD0201FF5105E10201016BF7
:10423000026B036B046B60EC28F015CD01F216CD18
:0C42400002F217CD03F218CD04F21200B8
:04424C000D01496BAC
:10425000080E495D22E200C3E9FF01C3EAFF040E34
:10426000E926000EEA22E9CF14F0EACF15F0495111
:104270000F011424E96E000E1520EA6EEF50FF08BE
:1042800009E0A20E0301FB6FFC6B0301070EFA6F3E
:1042900046EC4DF00D01492BDBD700C3E9FF01C30C
:1042A000EAFFEECF16F0EFCF17F016C017F0166A40
:1042B00000C3E9FF01C3EAFFEECF18F0EFCF19F01A
:1042C00019C018F0196A16501810146E17501910EA
:1042D000156E00C3E9FF01C3EAFF14C0EEFF15C06D
:1042E000EDFF00C3E9FF01C3EAFF220EE926000E3D
:1042F000EA22EECF16F0EFCF17F016C017F0166ACD
:1043000000C3E9FF01C3EAFF220EE926000EEA22FC
:10431000EECF18F0EFCF19F019C018F0196A165047
:104320001810146E17501910156E00C3E9FF01C361
:10433000EAFF220E14C0EBFF230E15C0EBFF00C3F3
:10434000E9FF01C3EAFF240EE926000EEA22EECFC0
:1043500016F0EFCF17F016C017F0166A00C3E9FF8A
:1043600001C3EAFF240EE926000EEA22EECF18F080
:10437000EFCF19F019C018F0196A16501810146E02
:1043800017501910156E00C3E9FF01C3EAFF240E90
:1043900014C0EBFF250E15C0EBFF00C3E9FF01C3FE
:1043A000EAFF260EE926000EEA22EECF16F0EFCF46
:1043B00017F016C017F0166A00C3E9FF01C3EAFF41
:1043C000260EE926000EEA22EECF18F0EFCF19F004
:1043D00019C018F0196A16501810146E17501910D9
:1043E000156E00C3E9FF01C3EAFF260E14C0EBFF00
:1043F000270E15C0EBFF00C3E9FF01C3EAFF0D0E56
:10440000EB500301376FDDDB00C3E9FF01C3EAFFB7
:104410000D0EE926000EEA221F0EEF6E0301280E94
:104420003B6F00C339F301C33AF30301386BD0DBB0
:1044300000C3E9FF01C3EAFFEECF16F0EFCF17F09C
:1044400016C017F0166A00C3E9FF01C3EAFFEECFFA
:1044500018F0EFCF19F019C018F0196A165018109B
:10446000146E17501910156E00C3E9FF01C3EAFF5F
:1044700014C0EEFF15C0EDFF00C3E9FF01C3EAFF62
:10448000220EE926000EEA22EECF16F0EFCF17F04B
:1044900016C017F0166A00C3E9FF01C3EAFF220E37
:1044A000E926000EEA22EECF18F0EFCF19F019C07E
:1044B00018F0196A16501810146E17501910156E4E
:1044C00000C3E9FF01C3EAFF220E14C0EBFF230E75
:1044D00015C0EBFF00C3E9FF01C3EAFF240EE92684
:1044E000000EEA22EECF16F0EFCF17F016C017F04D
:1044F000166A00C3E9FF01C3EAFF240EE926000E95
:10450000EA22EECF18F0EFCF19F019C018F0196AAF
:1045100016501810146E17501910156E00C3E9FFCD
:1045200001C3EAFF240E14C0EBFF250E15C0EBFFFC
:1045300000C3E9FF01C3EAFF260EE926000EEA22C6
:10454000EECF16F0EFCF17F016C017F0166A00C3C3
:10455000E9FF01C3EAFF260EE926000EEA22EECFAC
:1045600018F0EFCF19F019C018F0196A165018108A
:10457000146E17501910156E00C3E9FF01C3EAFF4E
:10458000260E14C0EBFF270E15C0EBFF1DDBE66EF9
:1045900000C3E9FF01C3EAFF0D0EE926000EEA227F
:1045A000E552E750EF6E12000301010E406F030168
:1045B000280E3F6F02C33DF303C33EF303013C6B80
:1045C00028DB02C3E9FF03C3EAFFEECF16F0EFCF0B
:1045D00017F016C017F0166A02C3E9FF03C3EAFF1B
:1045E000EECF18F0EFCF19F019C018F0196A165075
:1045F0001810146E17501910156E02C3E9FF03C38B
:10460000EAFF14C0EEFF15C0EDFF02C3E9FF03C3CC
:10461000EAFF220EE926000EEA22EECF16F0EFCFD7
:1046200017F016C017F0166A02C3E9FF03C3EAFFCA
:10463000220EE926000EEA22EECF18F0EFCF19F095
:1046400019C018F0196A16501810146E1750191066
:10465000156E02C3E9FF03C3EAFF220E14C0EBFF8D
:10466000230E15C0EBFF02C3E9FF03C3EAFF240ECC
:10467000E926000EEA22EECF16F0EFCF17F016C0B3
:1046800017F0166A02C3E9FF03C3EAFF240EE92606
:10469000000EEA22EECF18F0EFCF19F019C018F093
:1046A000196A16501810146E17501910156E02C39F
:1046B000E9FF03C3EAFF240E14C0EBFF250E15C06B
:1046C000EBFF02C3E9FF03C3EAFF260EE926000E53
:1046D000EA22EECF16F0EFCF17F016C017F0166AE9
:1046E00002C3E9FF03C3EAFF260EE926000EEA2211
:1046F000EECF18F0EFCF19F019C018F0196A165064
:104700001810146E17501910156E02C3E9FF03C379
:10471000EAFF260E14C0EBFF270E15C0EBFF1200B8
:104720000301010E3B6F0301040E396F030E3A6F54
:104730000301010E386FE8EF25F00301010E406F11
:1047400003013F6F05C33DF306C33EF303013C6F16
:1047500009EF26F007C315F0146A08C316F0176AAC
:10476000145016100301076F15501710086F03013E
:10477000020E3B6F0301070E396F030E3A6F030100
:104780000C0E386FE8EF25F00301010E406F0301B6
:10479000020E3F6F09C33DF30AC33EF303010C0E43
:1047A0003C6F37DA09C3E9FF0AC3EAFFEECF16F020
:1047B000EFCF17F016C017F0166A09C3E9FF0AC356
:1047C000EAFFEECF18F0EFCF19F019C018F0196A10
:1047D00016501810146E17501910156E09C3E9FF02
:1047E0000AC3EAFF14C0EEFF15C0EDFF12000BC3B1
:1047F00015F0146A0CC316F0176A14501610030152
:104800000B6F155017100C6F0301020E3B6F030165
:104810000B0E396F030E3A6F03010D0E386FE8EF80
:1048200025F00301010E406F0301020E3F6F0DC31F
:104830003DF30EC33EF303010D0E3C6FEAD90DC3E9
:10484000E9FF0EC3EAFFEECF16F0EFCF17F016C068
:1048500017F0166A0DC3E9FF0EC3EAFFEECF18F09A
:10486000EFCF19F019C018F0196A16501810146E0D
:1048700017501910156E0DC3E9FF0EC3EAFF14C0DF
:10488000EEFF15C0EDFF12000FC315F0146A10C340
:1048900016F0176A1450161003010F6F15501710F9
:1048A000106F0301020E3B6F03010F0E396F030EF1
:1048B0003A6F03010E0E386FE8EF25F00301010E89
:1048C000406F0301020E3F6F11C33DF312C33EF36D
:1048D00003010E0E3C6F9DD911C3E9FF12C3EAFF1D
:1048E000EECF16F0EFCF17F016C017F0166A11C30F
:1048F000E9FF12C3EAFFEECF18F0EFCF19F019C0AD
:1049000018F0196A16501810146E17501910156EF9
:1049100011C3E9FF12C3EAFF14C0EEFF15C0EDFF9B
:1049200012000301010E3B6F0301130E396F030EDA
:104930003A6F03010B0E386FE8EF25F00301010E0B
:10494000406F03013F6F14C33DF315C33EF30301F2
:104950000B0E3C6F09EF26F00301010E3B6F0301C4
:10496000160E396F030E3A6F0301020E386FE8EF2F
:1049700025F00301010E406F03013F6F17C33DF3A4
:1049800018C33EF30301020E3C6F09EF26F003014A
:10499000910EFB6F020EFC6F0301070EFA6F46EFDC
:1049A0004DF00301B20EFB6F020EFC6F0301070E08
:1049B000FA6F46EF4DF00301010E3B6F03011D0E30
:1049C000396F030E3A6F0301040E386FE8EF25F0DC
:1049D0000301010E406F03013F6F1EC33DF31FC370
:1049E0003EF30301040E3C6F09EF26F020C337F3BA
:1049F000E1EF25F0E9D821C3E9FF22C3EAFFEF6E1A
:104A000012000301010E3B6F0301230E396F030EE9
:104A10003A6F0301060E386FE8EF25F00301010E2F
:104A2000406F03013F6F24C33DF325C33EF30301F1
:104A3000060E3C6F09EF26F00301010E3B6F0301E8
:104A4000260E396F030E3A6F0301070E386FE8EF39
:104A500025F00301010E406F03013F6F27C33DF3B3
:104A600028C33EF30301070E3C6F09EF26F02BC36A
:104A70003BF329C339F32AC33AF30301080E386F15
:104A8000E8EF25F00301406B03013F6B03013D6B31
:104A90003E6B0301080E3C6FBCD80F01450E166F2C
:104AA0000D0E176F060E0F01146F156B0F01126BB1
:104AB000136B0F01116B21EC2CF02EC3E9FF2FC3F8
:104AC000EAFF4ACDEFFF2CC316FF2DC317FF2EC3FD
:104AD000E9FF2FC3EAFFEF500F01146F156B060EAD
:104AE0000F01126F136B0F01116B21EC2CF000EF13
:104AF0002BF030C315F0146A31C316F0176A145046
:104B000016100301306F15501710316F0301020E9C
:104B10003B6F0301300E396F030E3A6F0301090E2C
:104B2000386FE8EF25F00301010E406F0301020E1C
:104B30003F6F32C33DF333C33EF30301090E3C6FB5
:104B400068D832C3E9FF33C3EAFFEECF16F0EFCFE8
:104B500017F016C017F0166A32C3E9FF33C3EAFF35
:104B6000EECF18F0EFCF19F019C018F0196A1650EF
:104B70001810146E17501910156E32C3E9FF33C3A5
:104B8000EAFF14C0EEFF15C0EDFF12000301010E95
:104B90003B6F0301340E396F030E3A6F03010A0EA7
:104BA000386FE8EF25F00301010E406F03013F6FFE
:104BB00035C33DF336C33EF303010A0E3C6F09EFE4
:104BC00026F037C326F412000401265100D012004B
:104BD0000D01020E456F1A0E466F38C347FD3BC3E9
:104BE00048FD3BC36EFF39C36CFF3AC36DFF0F0135
:104BF000040E6B6F0F01450E696F0D0E6A6FCDECE1
:104C000041F00F01010E706F0F011A0E6F6F48EF28
:104C100042F00D01020E4B6F1B0E4C6F3CC34DFD5D
:104C20004E6B0F016E6B0F016C6B6D6B0F01040E01
:104C30006B6F0F014B0E696F0D0E6A6FCDEC41F07B
:104C4000030140050FE13DC374FF3EC375FF0F0133
:104C5000060E736F3FC372FF0F011B0E716FA0EC46
:104C600042F007D00F01706B0F011B0E6F6F48EC05
:044C700042F01200FC
:0C4C74000D01006B090E005D06E200CD92
:104C800090F19ED80D01002BF7D701018783120008
:104C90000401226912000D01000E016F010E026F66
:104CA000006B090E005D01E388D001CDE9FF02CD64
:104CB000EAFF0C0EE926000EEA22EECF14F0EFCF49
:104CC00015F0166A176A14501510161017106FE1B8
:104CD00001CDE9FF02CDEAFF0C0E88C1EBFF0D0EFE
:104CE00089C1EBFF0101885189111FE1000ED880B5
:104CF0008E55200E8F5505E3000E8E5D100E8F59D8
:104D000003E28E6B100E8F6F8EC114F08FC115F001
:104D10008E2B000E8F2301CDE9FF02CDEAFF0C0E92
:104D200014C0EBFF0D0E15C0EBFF8A518B111AE07A
:104D30000A0EE66EE66A8AC1E6FF8BC1E6FF01CD88
:104D4000E9FF02CDEAFFE9CF14F0EACF15F014C075
:104D5000E6FF15C0E6FF90EC49F0166E060EE15E28
:104D6000165016D00A0EE66EE66AE66801CDE9FF37
:104D700002CDEAFFE9CF14F0EACF15F014C0E6FF48
:104D800015C0E6FFBBEC49F0166E050EE15E16504D
:104D900001CDE9FF02CDEAFF0A0E8CC1EBFF0B0E3D
:104DA0008DC1EBFF00CD7EF10D01005108D00E0E3C
:104DB0000127000E0223002B74D7FF0E00D0120033
:104DC000090E0101905D01E31ED090510E0DF3CF4D
:104DD000E9FFF4CFEAFF000EE926010EEA220C0EED
:104DE000E926000EEA22EE6AED6A90510E0DF3CF2D
:104DF000E9FFF4CFEAFF000EE926010EEA22EE6A8F
:104E0000EE6AEE6AEE6A1200080E0101156A91253B
:104E1000146E92511522166A176A7A0E14260B0E1A
:104E20001522000E162217220E0E1426000E152231
:104E300016221722140E1426000E152216221722EF
:104E400014C0C0F215C0C1F21DEC12F091C183F183
:104E500092C184F11200080E010193250001CD6F6B
:104E6000000E010194210001CE6FB8EC01F093C156
:104E700085F194C186F11200B0EC0FF0000903E156
:104E8000F36AF46A2DD0010195510401225D09E015
:104E900095C122F401017F6B806B0101916B926BD4
:104EA000B3DF95C17EF1C00E186E050E196E1A6A39
:104EB0001B6A7FC11CF080C11DF01E6A1F6A1C5056
:104EC000185C146E1D501958156E1E501A58166E27
:104ED0001F501B58176E14C0F3FF15C0F4FF00D00D
:104EE000120083C114F084C115F0166A176AC00E4F
:104EF000145C050E1558000E1658000E175802E3E4
:104F0000000E13D096C1D2F24EEC15F00101832BA6
:104F1000000E842383517F5D8451805904E283C154
:104F20007FF184C180F1010E00D01200C00E186E16
:104F3000050E196E1A6A1B6A83C11CF084C11DF02C
:104F40001E6A1F6A1C50185C146E1D501958156E8D
:104F50001E501A58166E1F501B58176E14C000FDB5
:104F600015C001FD010199510D01005D01019A512A
:104F70000D01015904E200CD99F101CD9AF1010131
:104F8000995183279A51842383517F5D845180599D
:104F900004E283C17FF184C180F199C1D5F29AC145
:104FA000D6F297C1D3F298C1D4F26EEC15F099C144
:104FB000F3FF9AC1F4FF00D01200C00E186E050E68
:104FC000196E1A6A1B6A83C11CF084C11DF01E6A27
:104FD0001F6A1C50185C146E1D501958156E1E5017
:104FE0001A58166E1F501B58176E14C000FD15C0BE
:104FF00001FD01019D510D01005D01019E510D0159
:10500000015904E200CD9DF101CD9EF101019D51B8
:1050100083279E51842383517F5D8451805904E20C
:1050200083C17FF184C180F19DC1D9F29EC1DAF2C2
:105030009BC1D7F29CC1D8F28CEC15F09DC1F3FF57
:105040009EC1F4FF00D012009FC1E6FFA0C1E6FFA1
:10505000D5EC49F0E552E552F3CF99F1F4CF9AF14E
:105060009FC197F1A0C198F161DF01019F51F32425
:10507000146EA051F420156E14C0F3FF15C0F4FF98
:1050800000D01200A1C1E6FFA2C1E6FFD5EC49F0B5
:10509000E552E552F3CF9DF1F4CF9EF1A1C19BF112
:1050A000A2C19CF18ADF0101A151F324146EA25127
:1050B000F420156E14C0F3FF15C0F4FF00D01200E9
:1050C00001017E510E0DF3CF32FDF4CF33FD000E02
:1050D0000D013227010E3323080E01017F250D013A
:1050E000346F000E010180210D01356F32CDE9FFD3
:1050F00033CDEAFF0C0EE926000EEA22EECFF5F3DF
:10510000EDCFF6F335EC47F0F3CF2AFDF4CF2BFDCE
:1051100032CDE9FF33CDEAFF0A0EE926000EEA227E
:10512000EECFF5F3EDCFF6F335EC47F0F3CF2CFDF2
:10513000F4CF2DFD34CDF5F335CDF6F335EC47F056
:10514000F3CF2EFDF4CF2FFD0D01306B316B02013B
:10515000880EC06F0B0EC16F1DEC12F034CDCBF07A
:1051600035CDCCF00001110ECA6F32CDE9FF33CD41
:10517000EAFFE9CFC8F0EACFC9F044EC01F0080E2D
:105180000201D56FD66B02012A0ED36F0D0ED46FBC
:105190006EEC15F0CAEC11F001017F6B806B04011D
:1051A00022691200A3C17EF10101A3510401235D14
:1051B00003E0F36AF46A14D0010187A105D0879156
:1051C0000101936B946B47DE01018551815D146E83
:1051D00082518655156E14C0F3FF15C0F4FF00D040
:1051E000120001018151855D8251865904E27E5190
:1051F0000401235D02E0000E0DD0E7EC14F0A4C121
:10520000E9FFA5C1EAFFEF6E0101852B000E8623A1
:10521000010E00D0120001018151855D8251865935
:1052200004E27E510401235D03E0F36AF46A2FD0A7
:1052300001018551815D0D01096F0101865182597E
:105240000D010A6F0101A8510D01095D0101A9516C
:105250000D010A5904E209CDA8F10ACDA9F1A8C1AE
:10526000D0F2A9C1D1F2A6C1CEF2A7C1CFF207EC0C
:1052700015F0F3CFA8F1F4CFA9F10101A8518527CA
:10528000A9518623A8C1F3FFA9C1F4FF00D01200E1
:10529000010187B309D05DEC10F00101816B826BD5
:1052A000040123690101878312000101816B826B74
:1052B000080E0201D06FD16B02011C0ECE6F0D0ED5
:1052C000CF6F07EC15F01CCDF5F31DCDF6F335ECE3
:1052D00047F0F3CF1CFDF4CF1DFD1ECDF5F31FCD20
:1052E000F6F335EC47F0F3CF1EFDF4CF1FFD20CDD4
:1052F000F5F321CDF6F335EC47F0F3CF20FDF4CFF5
:1053000021FD0D01080E205F000E215B22512311AB
:1053100055E0AAC1E9FFABC1EAFFEECF25FDEECF14
:1053200026FDEECF27FDEFCF28FDACC1E9FFADC1D3
:10533000EAFFEECF29FDEECF2AFDEECF2BFDEFCF1A
:105340002CFD2D6B110E2E6FAEC12FFDAFC130FDA8
:105350002FCDF5F330CDF6F335EC47F0F3CF2FFD3D
:10536000F4CF30FD0C0E0301F16FF26B0301250E3B
:10537000EF6F0D0EF06F53EC46F0F3CF31FDF4CF2D
:1053800032FD0D01311F321F0001CD6BCE6BB8EC29
:1053900001F0AEC1F3F3AFC1F4F3B0EC46F0F3CFDC
:1053A00033FDF4CF34FD0D013351311902E1345195
:1053B000321904E05DEC10F0000E23D0ACC1B4F162
:1053C000ADC1B5F1AAC1B2F1ABC1B3F101011C0E7F
:1053D000B06F0D0EB16F16D80D01246FFF0E245D56
:1053E00005E15DEC10F0000E0CD009D024CD23F4C3
:1053F00020CD81F121CD82F1010187818793010EBA
:1054000000D01200B2C1E9FFB3C1EAFFEE500201C1
:10541000011909E1EE50021906E1EE50031903E10A
:10542000EE50041900E102E1FF0EA7D00D01016961
:10543000000E026F010E036F006B090E005D62E249
:1054400002CDE9FF03CDEAFF0C0EE926000EEA22A9
:10545000EECF14F0EFCF15F0B0C1E9FFB1C1EAFF14
:10546000020EE926000EEA22EECF16F0EFCF17F07B
:105470001650141802E1175015183DE102CDE9FF4E
:1054800003CDEAFF0A0EE926000EEA22EECF14F061
:10549000EFCF15F0B0C1E9FFB1C1EAFFEECF16F0D2
:1054A000EFCF17F01650141802E11750151821E12C
:1054B000B2C1E9FFB3C1EAFFEECF14F0EECF15F0B1
:1054C000EECF16F0EFCF17F002CDE9FF03CDEAFFE4
:1054D000EE500001141809E1EE50151806E1EE50E7
:1054E000161803E1EE50171800E103E10D01005119
:1054F00044D000CD01FD0D010E0E0227000E032346
:10550000002B9BD7FF0E015D35E001510E0DF3CF4F
:1055100002FDF4CF03FD000E0227010E03230A0E45
:10552000E66EE66AB2C1E6FFB3C1E6FF02CDE9FF6F
:1055300003CDEAFFE9CF14F0EACF15F014C0E6FF7F
:1055400015C0E6FF90EC49F0166E060EE15E1650AF
:10555000B0C1E9FFB1C1EAFFEECF14F0EFCF15F013
:1055600002CDE9FF03CDEAFF0A0E14C0EBFF0B0EDC
:0C55700015C0EBFF0D01015100D012002E
:04557C000F01310EDC
:10558000516FC5EC2EF0F3CF08FDF4CF09FDFF0EEF
:105590000D0108170F0E09170F0104510D01085DC9
:1055A0000F0105510D01095928E304CF24FF05CF50
:1055B00025FF0F01010E236F100E0F01216F226BCB
:1055C000010E0F011F6F206B6ED9F3CF0AFDF4CFD0
:1055D0000BFD0D010A510B1109E1780E0301FB6F60
:1055E000FC6B03010B0EFA6F46EC4DF00F01010E40
:1055F000016F030E036F010E02D0000E00D01200E7
:105600000F01246B256B0F01236B100E0F01216F0F
:10561000226B0F011F6B206B46D90201B46B51EF57
:1056200010F00F012F0E516FC5EC2EF0F3CF9DFD42
:10563000F4CF9EFDFF0E0D019D170F0E9E170F015B
:1056400006510D019D5D0F0107510D019E5928E383
:1056500006CF24FF07CF25FF0F01010E236F200E79
:105660000F01216F226B010E0F011F6F206B1BD9E1
:10567000F3CF9FFDF4CFA0FD0D019F51A01109E1D3
:105680009A0E0301FB6FFC6B03010B0EFA6F46ECE5
:105690004DF00F01010E016F020E036F010E02D0DB
:1056A000000E00D012000F01246B256B0F01236B3D
:1056B000200E0F01216F226B010E0F011F6F206B57
:1056C000F2D80F01016B036B12000F01246B256BE5
:1056D0000F01236B200E0F01216F226B0F011F6B37
:1056E000206B53EF2CF008CF24FF09CF25FF0F01CB
:1056F000236B0F01216B226B010E0F011F6F206BBB
:10570000D2D80F01016B036B12000F01246B256BC4
:105710000F01010E236F0F01216B226B0F011F6B15
:10572000206BC1D8F3CF2DFDF4CF2EFD0F01010E5C
:10573000006F020E026F2DCDF3FF2ECDF4FF00D0CF
:1057400012000BCF24FF0CCF25FF0F01010E236F9A
:10575000700E0F01216F226B0F010A510F011F6F95
:10576000206B53EF2CF00F01246B256B0F01236B83
:10577000400E0F01216F226B0F010D510F011F6FA2
:10578000206B53EF2CF00F01246B256B0F01010EE2
:10579000236F400E0F01216F226B0F010E510F017D
:1057A0001F6F206B80D8F3CF9DFDF4CF9EFD9DCD64
:1057B000F3FF9ECDF4FF00D012000F01246B256B88
:1057C0000F01010E236F300E0F01216F226B0F01AD
:1057D0000F510F011F6F206B66D8F3CF9DFDF4CFE3
:1057E0009EFD0D019D519E1107E10F010F5102E039
:1057F000000E01D0010E0F6F0F010F51EA6A020F68
:10580000E96E0F0EEA22010EEF6E9DCDF3FF9ECDE5
:10581000F4FF00D012000F01246B256B0F01236BE6
:10582000300E0F01216F226B0F0110510F011F6FFE
:10583000206B39D80F01105102E1026B01D0036BCC
:10584000120012CF28FF13CF29FF0F0111510F01B2
:10585000266F276B7ED814CF30FF15CF31FF16CFC0
:105860002EFF17CF2FFF0F0111510F012C6F2D6B42
:1058700014EF2DF019CF28FF1ACF29FF0F0118516F
:105880000F01266F276B65D81BCF36FF1CCF37FF64
:105890001DCF34FF1ECF35FF0F0118510F01326F9E
:1058A000336B41EF2DF00D018F6B906B0F01235186
:1058B00002E00D01908F21CF15F0146A14500D01F4
:1058C0008F131550901325CF14F0156A0F0E141670
:1058D000000E151614C015F0146A14508F131550CD
:1058E0009013FF0E0F012415146E156A14500D014C
:1058F0008F13155090130F011F51201102E1020E5A
:1059000001D0040E0D018E6F8ECD50FF0F01010EE0
:105910004F6FA9EC2EF00F011F51201102E1250E4F
:1059200001D0290E0D018D6F8FCD53FF90CD54FF07
:105930008DCD52FFF3EC2EF01FCF3EFFE1D8F3CF19
:105940008BFDF4CF8CFD8BCDF3FF8CCDF4FF00D01D
:1059500012000F012651271102E1270E01D02B0E54
:105960000D01736F28CF53FF29CF54FF73CD52FF22
:10597000F3EC2EF0AFEC4AF006C076FD07C077FDE1
:1059800008C078FD09C079FD0D01C30E7A6F7B6BED
:105990007C6B7D6B0F012651271102E1280E01D08F
:1059A0002C0E0D01736F73CD51FFC5EC2EF0F3CFAC
:1059B00074FDF4CF75FD0D017451010B02E1010E70
:1059C0001BD0AFEC4AF00D017651065C146E775196
:1059D0000758156E78510858166E79510958176E88
:1059E0007A51145C7B5115587C5116587D511758CB
:1059F00002E3000E01D0D7D712000F012A512B115C
:105A000002E1270E01D02B0E0D01176F17CD51FFAC
:105A1000C5EC2EF0F3CF18FDF4CF19FD18CDF3FF30
:105A200019CDF4FF00D012000401165115E10F0149
:105A30002C512D1111E10201A6510EE0020E0F01B1
:105A4000025D0AE10301130EFB6F020EFC6F0301FE
:105A50000B0EFA6F46EC4DF00F012C512D1102E1A7
:105A6000200E01D0210E0D01686F30CF5DFF31CFC8
:105A70005EFF2ECF5BFF2FCF5CFF68CD5AFF42EF5A
:105A80002FF00F013251331111E10201A6510EE046
:105A9000020E0F01035D0AE103013D0EFB6F020ED2
